{
  "transactions": [
    {
      "hash": null,
      "transactionType": "CALL",
      "contractName": null,
      "contractAddress": "0xc7f974b3710560d070dec95288339efab683c417",
      "function": "mint(address,uint256)",
      "arguments": [
        "0x9b96854113FEfc8405f553d6323c150237C5280d",
        "1000000000"
      ],
      "transaction": {
        "from": "0x0c015c85340793854e7528943746447713e2c326",
        "to": "0xc7f974b3710560d070dec95288339efab683c417",
        "gas": "0x125dd",
        "value": "0x0",
        "input": "0x40c10f190000000000000000000000009b96854113fefc8405f553d6323c150237c5280d000000000000000000000000000000000000000000000000000000003b9aca00",
        "nonce": "0x8e2",
        "chainId": "0x66eee"
      },
      "additionalContracts": [],
      "isFixedGasLimit": false
    },
    {
      "hash": null,
      "transactionType": "CALL",
      "contractName": null,
      "contractAddress": "0x82225d7fb76b961f03b063fdb5b25bee891e50b3",
      "function": null,
      "arguments": null,
      "transaction": {
        "from": "0x0c015c85340793854e7528943746447713e2c326",
        "to": "0x82225d7fb76b961f03b063fdb5b25bee891e50b3",
        "gas": "0x7f0b",
        "value": "0x11c37937e08000",
        "input": "0x",
        "nonce": "0x8e3",
        "chainId": "0x66eee"
      },
      "additionalContracts": [],
      "isFixedGasLimit": false
    },
    {
      "hash": null,
      "transactionType": "CALL",
      "contractName": null,
      "contractAddress": "0xa730efe70d3f67d08dd4a17a867c95bfe1f33cfa",
      "function": "mint(address,uint256)",
      "arguments": [
        "0x82225D7FB76b961F03B063fDB5B25BEE891e50B3",
        "1000000000"
      ],
      "transaction": {
        "from": "0x0c015c85340793854e7528943746447713e2c326",
        "to": "0xa730efe70d3f67d08dd4a17a867c95bfe1f33cfa",
        "gas": "0x125dd",
        "value": "0x0",
        "input": "0x40c10f1900000000000000000000000082225d7fb76b961f03b063fdb5b25bee891e50b3000000000000000000000000000000000000000000000000000000003b9aca00",
        "nonce": "0x8e4",
        "chainId": "0x66eee"
      },
      "additionalContracts": [],
      "isFixedGasLimit": false
    },
    {
      "hash": null,
      "transactionType": "CALL",
      "contractName": null,
      "contractAddress": "0xc7f974b3710560d070dec95288339efab683c417",
      "function": "mint(address,uint256)",
      "arguments": [
        "0x82225D7FB76b961F03B063fDB5B25BEE891e50B3",
        "1000000000"
      ],
      "transaction": {
        "from": "0x0c015c85340793854e7528943746447713e2c326",
        "to": "0xc7f974b3710560d070dec95288339efab683c417",
        "gas": "0x125dd",
        "value": "0x0",
        "input": "0x40c10f1900000000000000000000000082225d7fb76b961f03b063fdb5b25bee891e50b3000000000000000000000000000000000000000000000000000000003b9aca00",
        "nonce": "0x8e5",
        "chainId": "0x66eee"
      },
      "additionalContracts": [],
      "isFixedGasLimit": false
    },
    {
      "hash": null,
      "transactionType": "CALL",
      "contractName": null,
      "contractAddress": "0xa730efe70d3f67d08dd4a17a867c95bfe1f33cfa",
      "function": "approve(address,uint256)",
      "arguments": [
        "0xAaE3116210b866f00ccf8dCbD540A6Cc5d070d72",
        "1000000000"
      ],
      "transaction": {
        "from": "0x5f7215df3fbd70ddbb68cec0dc0a23e4ab77b562",
        "to": "0xa730efe70d3f67d08dd4a17a867c95bfe1f33cfa",
        "gas": "0x10db3",
        "value": "0x0",
        "input": "0x095ea7b3000000000000000000000000aae3116210b866f00ccf8dcbd540a6cc5d070d72000000000000000000000000000000000000000000000000000000003b9aca00",
        "nonce": "0x0",
        "chainId": "0x66eee"
      },
      "additionalContracts": [],
      "isFixedGasLimit": false
    },
    {
      "hash": null,
      "transactionType": "CALL",
      "contractName": null,
      "contractAddress": "0xaae3116210b866f00ccf8dcbd540a6cc5d070d72",
      "function": "deposit(address,uint256)",
      "arguments": [
        "0xA730eFe70d3f67d08dD4a17a867c95bFe1F33CfA",
        "1000000000"
      ],
      "transaction": {
        "from": "0x5f7215df3fbd70ddbb68cec0dc0a23e4ab77b562",
        "to": "0xaae3116210b866f00ccf8dcbd540a6cc5d070d72",
        "gas": "0x1bd06",
        "value": "0x0",
        "input": "0x47e7ef24000000000000000000000000a730efe70d3f67d08dd4a17a867c95bfe1f33cfa000000000000000000000000000000000000000000000000000000003b9aca00",
        "nonce": "0x1",
        "chainId": "0x66eee"
      },
      "additionalContracts": [],
      "isFixedGasLimit": false
    },
    {
      "hash": null,
      "transactionType": "CALL",
      "contractName": null,
      "contractAddress": "0xc7f974b3710560d070dec95288339efab683c417",
      "function": "approve(address,uint256)",
      "arguments": [
        "0xAaE3116210b866f00ccf8dCbD540A6Cc5d070d72",
        "1000000000"
      ],
      "transaction": {
        "from": "0x5f7215df3fbd70ddbb68cec0dc0a23e4ab77b562",
        "to": "0xc7f974b3710560d070dec95288339efab683c417",
        "gas": "0x10ca8",
        "value": "0x0",
        "input": "0x095ea7b3000000000000000000000000aae3116210b866f00ccf8dcbd540a6cc5d070d72000000000000000000000000000000000000000000000000000000003b9aca00",
        "nonce": "0x2",
        "chainId": "0x66eee"
      },
      "additionalContracts": [],
      "isFixedGasLimit": false
    },
    {
      "hash": null,
      "transactionType": "CALL",
      "contractName": null,
      "contractAddress": "0xaae3116210b866f00ccf8dcbd540a6cc5d070d72",
      "function": "deposit(address,uint256)",
      "arguments": [
        "0xC7f974b3710560D070dEc95288339EfAB683C417",
        "1000000000"
      ],
      "transaction": {
        "from": "0x5f7215df3fbd70ddbb68cec0dc0a23e4ab77b562",
        "to": "0xaae3116210b866f00ccf8dcbd540a6cc5d070d72",
        "gas": "0x1bd06",
        "value": "0x0",
        "input": "0x47e7ef24000000000000000000000000c7f974b3710560d070dec95288339efab683c417000000000000000000000000000000000000000000000000000000003b9aca00",
        "nonce": "0x3",
        "chainId": "0x66eee"
      },
      "additionalContracts": [],
      "isFixedGasLimit": false
    },
    {
      "hash": null,
      "transactionType": "CALL",
      "contractName": null,
      "contractAddress": "0xa730efe70d3f67d08dd4a17a867c95bfe1f33cfa",
      "function": "approve(address,uint256)",
      "arguments": [
        "0xAaE3116210b866f00ccf8dCbD540A6Cc5d070d72",
        "1000000000"
      ],
      "transaction": {
        "from": "0xc480ff6dc39eb77d35f96caa281ef08ebcb63c94",
        "to": "0xa730efe70d3f67d08dd4a17a867c95bfe1f33cfa",
        "gas": "0x10db3",
        "value": "0x0",
        "input": "0x095ea7b3000000000000000000000000aae3116210b866f00ccf8dcbd540a6cc5d070d72000000000000000000000000000000000000000000000000000000003b9aca00",
        "nonce": "0x0",
        "chainId": "0x66eee"
      },
      "additionalContracts": [],
      "isFixedGasLimit": false
    },
    {
      "hash": null,
      "transactionType": "CALL",
      "contractName": null,
      "contractAddress": "0xaae3116210b866f00ccf8dcbd540a6cc5d070d72",
      "function": "deposit(address,uint256)",
      "arguments": [
        "0xA730eFe70d3f67d08dD4a17a867c95bFe1F33CfA",
        "1000000000"
      ],
      "transaction": {
        "from": "0xc480ff6dc39eb77d35f96caa281ef08ebcb63c94",
        "to": "0xaae3116210b866f00ccf8dcbd540a6cc5d070d72",
        "gas": "0x1a19a",
        "value": "0x0",
        "input": "0x47e7ef24000000000000000000000000a730efe70d3f67d08dd4a17a867c95bfe1f33cfa000000000000000000000000000000000000000000000000000000003b9aca00",
        "nonce": "0x1",
        "chainId": "0x66eee"
      },
      "additionalContracts": [],
      "isFixedGasLimit": false
    },
    {
      "hash": null,
      "transactionType": "CALL",
      "contractName": null,
      "contractAddress": "0xc7f974b3710560d070dec95288339efab683c417",
      "function": "approve(address,uint256)",
      "arguments": [
        "0xAaE3116210b866f00ccf8dCbD540A6Cc5d070d72",
        "1000000000"
      ],
      "transaction": {
        "from": "0xc480ff6dc39eb77d35f96caa281ef08ebcb63c94",
        "to": "0xc7f974b3710560d070dec95288339efab683c417",
        "gas": "0x10ca8",
        "value": "0x0",
        "input": "0x095ea7b3000000000000000000000000aae3116210b866f00ccf8dcbd540a6cc5d070d72000000000000000000000000000000000000000000000000000000003b9aca00",
        "nonce": "0x2",
        "chainId": "0x66eee"
      },
      "additionalContracts": [],
      "isFixedGasLimit": false
    },
    {
      "hash": null,
      "transactionType": "CALL",
      "contractName": null,
      "contractAddress": "0xaae3116210b866f00ccf8dcbd540a6cc5d070d72",
      "function": "deposit(address,uint256)",
      "arguments": [
        "0xC7f974b3710560D070dEc95288339EfAB683C417",
        "1000000000"
      ],
      "transaction": {
        "from": "0xc480ff6dc39eb77d35f96caa281ef08ebcb63c94",
        "to": "0xaae3116210b866f00ccf8dcbd540a6cc5d070d72",
        "gas": "0x1a19a",
        "value": "0x0",
        "input": "0x47e7ef24000000000000000000000000c7f974b3710560d070dec95288339efab683c417000000000000000000000000000000000000000000000000000000003b9aca00",
        "nonce": "0x3",
        "chainId": "0x66eee"
      },
      "additionalContracts": [],
      "isFixedGasLimit": false
    },
    {
      "hash": null,
      "transactionType": "CALL",
      "contractName": null,
      "contractAddress": "0xa730efe70d3f67d08dd4a17a867c95bfe1f33cfa",
      "function": "approve(address,uint256)",
      "arguments": [
        "0xAaE3116210b866f00ccf8dCbD540A6Cc5d070d72",
        "1000000000"
      ],
      "transaction": {
        "from": "0x9b96854113fefc8405f553d6323c150237c5280d",
        "to": "0xa730efe70d3f67d08dd4a17a867c95bfe1f33cfa",
        "gas": "0x10db3",
        "value": "0x0",
        "input": "0x095ea7b3000000000000000000000000aae3116210b866f00ccf8dcbd540a6cc5d070d72000000000000000000000000000000000000000000000000000000003b9aca00",
        "nonce": "0x0",
        "chainId": "0x66eee"
      },
      "additionalContracts": [],
      "isFixedGasLimit": false
    },
    {
      "hash": null,
      "transactionType": "CALL",
      "contractName": null,
      "contractAddress": "0xaae3116210b866f00ccf8dcbd540a6cc5d070d72",
      "function": "deposit(address,uint256)",
      "arguments": [
        "0xA730eFe70d3f67d08dD4a17a867c95bFe1F33CfA",
        "1000000000"
      ],
      "transaction": {
        "from": "0x9b96854113fefc8405f553d6323c150237c5280d",
        "to": "0xaae3116210b866f00ccf8dcbd540a6cc5d070d72",
        "gas": "0x1a19a",
        "value": "0x0",
        "input": "0x47e7ef24000000000000000000000000a730efe70d3f67d08dd4a17a867c95bfe1f33cfa000000000000000000000000000000000000000000000000000000003b9aca00",
        "nonce": "0x1",
        "chainId": "0x66eee"
      },
      "additionalContracts": [],
      "isFixedGasLimit": false
    },
    {
      "hash": null,
      "transactionType": "CALL",
      "contractName": null,
      "contractAddress": "0xc7f974b3710560d070dec95288339efab683c417",
      "function": "approve(address,uint256)",
      "arguments": [
        "0xAaE3116210b866f00ccf8dCbD540A6Cc5d070d72",
        "1000000000"
      ],
      "transaction": {
        "from": "0x9b96854113fefc8405f553d6323c150237c5280d",
        "to": "0xc7f974b3710560d070dec95288339efab683c417",
        "gas": "0x10ca8",
        "value": "0x0",
        "input": "0x095ea7b3000000000000000000000000aae3116210b866f00ccf8dcbd540a6cc5d070d72000000000000000000000000000000000000000000000000000000003b9aca00",
        "nonce": "0x2",
        "chainId": "0x66eee"
      },
      "additionalContracts": [],
      "isFixedGasLimit": false
    },
    {
      "hash": null,
      "transactionType": "CALL",
      "contractName": null,
      "contractAddress": "0xaae3116210b866f00ccf8dcbd540a6cc5d070d72",
      "function": "deposit(address,uint256)",
      "arguments": [
        "0xC7f974b3710560D070dEc95288339EfAB683C417",
        "1000000000"
      ],
      "transaction": {
        "from": "0x9b96854113fefc8405f553d6323c150237c5280d",
        "to": "0xaae3116210b866f00ccf8dcbd540a6cc5d070d72",
        "gas": "0x1a19a",
        "value": "0x0",
        "input": "0x47e7ef24000000000000000000000000c7f974b3710560d070dec95288339efab683c417000000000000000000000000000000000000000000000000000000003b9aca00",
        "nonce": "0x3",
        "chainId": "0x66eee"
      },
      "additionalContracts": [],
      "isFixedGasLimit": false
    },
    {
      "hash": null,
      "transactionType": "CALL",
      "contractName": null,
      "contractAddress": "0xa730efe70d3f67d08dd4a17a867c95bfe1f33cfa",
      "function": "approve(address,uint256)",
      "arguments": [
        "0xAaE3116210b866f00ccf8dCbD540A6Cc5d070d72",
        "1000000000"
      ],
      "transaction": {
        "from": "0x82225d7fb76b961f03b063fdb5b25bee891e50b3",
        "to": "0xa730efe70d3f67d08dd4a17a867c95bfe1f33cfa",
        "gas": "0x10db3",
        "value": "0x0",
        "input": "0x095ea7b3000000000000000000000000aae3116210b866f00ccf8dcbd540a6cc5d070d72000000000000000000000000000000000000000000000000000000003b9aca00",
        "nonce": "0x0",
        "chainId": "0x66eee"
      },
      "additionalContracts": [],
      "isFixedGasLimit": false
    },
    {
      "hash": null,
      "transactionType": "CALL",
      "contractName": null,
      "contractAddress": "0xaae3116210b866f00ccf8dcbd540a6cc5d070d72",
      "function": "deposit(address,uint256)",
      "arguments": [
        "0xA730eFe70d3f67d08dD4a17a867c95bFe1F33CfA",
        "1000000000"
      ],
      "transaction": {
        "from": "0x82225d7fb76b961f03b063fdb5b25bee891e50b3",
        "to": "0xaae3116210b866f00ccf8dcbd540a6cc5d070d72",
        "gas": "0x1a19a",
        "value": "0x0",
        "input": "0x47e7ef24000000000000000000000000a730efe70d3f67d08dd4a17a867c95bfe1f33cfa000000000000000000000000000000000000000000000000000000003b9aca00",
        "nonce": "0x1",
        "chainId": "0x66eee"
      },
      "additionalContracts": [],
      "isFixedGasLimit": false
    },
    {
      "hash": null,
      "transactionType": "CALL",
      "contractName": null,
      "contractAddress": "0xc7f974b3710560d070dec95288339efab683c417",
      "function": "approve(address,uint256)",
      "arguments": [
        "0xAaE3116210b866f00ccf8dCbD540A6Cc5d070d72",
        "1000000000"
      ],
      "transaction": {
        "from": "0x82225d7fb76b961f03b063fdb5b25bee891e50b3",
        "to": "0xc7f974b3710560d070dec95288339efab683c417",
        "gas": "0x10ca8",
        "value": "0x0",
        "input": "0x095ea7b3000000000000000000000000aae3116210b866f00ccf8dcbd540a6cc5d070d72000000000000000000000000000000000000000000000000000000003b9aca00",
        "nonce": "0x2",
        "chainId": "0x66eee"
      },
      "additionalContracts": [],
      "isFixedGasLimit": false
    },
    {
      "hash": null,
      "transactionType": "CALL",
      "contractName": null,
      "contractAddress": "0xaae3116210b866f00ccf8dcbd540a6cc5d070d72",
      "function": "deposit(address,uint256)",
      "arguments": [
        "0xC7f974b3710560D070dEc95288339EfAB683C417",
        "1000000000"
      ],
      "transaction": {
        "from": "0x82225d7fb76b961f03b063fdb5b25bee891e50b3",
        "to": "0xaae3116210b866f00ccf8dcbd540a6cc5d070d72",
        "gas": "0x1a19a",
        "value": "0x0",
        "input": "0x47e7ef24000000000000000000000000c7f974b3710560d070dec95288339efab683c417000000000000000000000000000000000000000000000000000000003b9aca00",
        "nonce": "0x3",
        "chainId": "0x66eee"
      },
      "additionalContracts": [],
      "isFixedGasLimit": false
    }
  ],
  "receipts": [],
  "libraries": [],
  "pending": [],
  "returns": {},
  "timestamp": 1781661245,
  "chain": 421614,
  "commit": "c560bea"
}