{
  "transactions": [
    {
      "hash": "0x21bbefbc1df31c4e888b06b4faf57d8dead19bb8cb16ddb4f8b498d6401f9ea9",
      "transactionType": "CALL",
      "contractName": null,
      "contractAddress": "0x5f7215df3fbd70ddbb68cec0dc0a23e4ab77b562",
      "function": null,
      "arguments": null,
      "transaction": {
        "from": "0x0c015c85340793854e7528943746447713e2c326",
        "to": "0x5f7215df3fbd70ddbb68cec0dc0a23e4ab77b562",
        "gas": "0x8341",
        "value": "0x11c37937e08000",
        "input": "0x",
        "nonce": "0x8d7",
        "chainId": "0x66eee"
      },
      "additionalContracts": [],
      "isFixedGasLimit": false
    },
    {
      "hash": "0xfd1f425c2d60a942bcdb6e8d5bc43a77209d82bae441a75a785707b133065360",
      "transactionType": "CALL",
      "contractName": null,
      "contractAddress": "0xa730efe70d3f67d08dd4a17a867c95bfe1f33cfa",
      "function": "mint(address,uint256)",
      "arguments": [
        "0x5f7215df3fbd70DDbb68CeC0dC0a23E4Ab77b562",
        "1000000000"
      ],
      "transaction": {
        "from": "0x0c015c85340793854e7528943746447713e2c326",
        "to": "0xa730efe70d3f67d08dd4a17a867c95bfe1f33cfa",
        "gas": "0x12bec",
        "value": "0x0",
        "input": "0x40c10f190000000000000000000000005f7215df3fbd70ddbb68cec0dc0a23e4ab77b562000000000000000000000000000000000000000000000000000000003b9aca00",
        "nonce": "0x8d8",
        "chainId": "0x66eee"
      },
      "additionalContracts": [],
      "isFixedGasLimit": false
    },
    {
      "hash": "0x571c56ac2baf2cca1d4dc01688563bd0659eb4183d67554ad0ae8d0a1d807b17",
      "transactionType": "CALL",
      "contractName": null,
      "contractAddress": "0xc7f974b3710560d070dec95288339efab683c417",
      "function": "mint(address,uint256)",
      "arguments": [
        "0x5f7215df3fbd70DDbb68CeC0dC0a23E4Ab77b562",
        "1000000000"
      ],
      "transaction": {
        "from": "0x0c015c85340793854e7528943746447713e2c326",
        "to": "0xc7f974b3710560d070dec95288339efab683c417",
        "gas": "0x12bec",
        "value": "0x0",
        "input": "0x40c10f190000000000000000000000005f7215df3fbd70ddbb68cec0dc0a23e4ab77b562000000000000000000000000000000000000000000000000000000003b9aca00",
        "nonce": "0x8d9",
        "chainId": "0x66eee"
      },
      "additionalContracts": [],
      "isFixedGasLimit": false
    },
    {
      "hash": "0xd26ea4cb15da18303bc81aa8ffbb796f8a1e0ec58d175f241bfb37bfc972ccbc",
      "transactionType": "CALL",
      "contractName": null,
      "contractAddress": "0xc480ff6dc39eb77d35f96caa281ef08ebcb63c94",
      "function": null,
      "arguments": null,
      "transaction": {
        "from": "0x0c015c85340793854e7528943746447713e2c326",
        "to": "0xc480ff6dc39eb77d35f96caa281ef08ebcb63c94",
        "gas": "0x8341",
        "value": "0x11c37937e08000",
        "input": "0x",
        "nonce": "0x8da",
        "chainId": "0x66eee"
      },
      "additionalContracts": [],
      "isFixedGasLimit": false
    },
    {
      "hash": "0x65dbec1c9c91a7869ed6e81674257158b3a601b649b32ca2fd7ae9cd1eac70b6",
      "transactionType": "CALL",
      "contractName": null,
      "contractAddress": "0xa730efe70d3f67d08dd4a17a867c95bfe1f33cfa",
      "function": "mint(address,uint256)",
      "arguments": [
        "0xC480FF6Dc39Eb77D35F96CaA281EF08EBcB63C94",
        "1000000000"
      ],
      "transaction": {
        "from": "0x0c015c85340793854e7528943746447713e2c326",
        "to": "0xa730efe70d3f67d08dd4a17a867c95bfe1f33cfa",
        "gas": "0x12bec",
        "value": "0x0",
        "input": "0x40c10f19000000000000000000000000c480ff6dc39eb77d35f96caa281ef08ebcb63c94000000000000000000000000000000000000000000000000000000003b9aca00",
        "nonce": "0x8db",
        "chainId": "0x66eee"
      },
      "additionalContracts": [],
      "isFixedGasLimit": false
    },
    {
      "hash": null,
      "transactionType": "CALL",
      "contractName": null,
      "contractAddress": "0xc7f974b3710560d070dec95288339efab683c417",
      "function": "mint(address,uint256)",
      "arguments": [
        "0xC480FF6Dc39Eb77D35F96CaA281EF08EBcB63C94",
        "1000000000"
      ],
      "transaction": {
        "from": "0x0c015c85340793854e7528943746447713e2c326",
        "to": "0xc7f974b3710560d070dec95288339efab683c417",
        "gas": "0x12bec",
        "value": "0x0",
        "input": "0x40c10f19000000000000000000000000c480ff6dc39eb77d35f96caa281ef08ebcb63c94000000000000000000000000000000000000000000000000000000003b9aca00",
        "nonce": "0x8dc",
        "chainId": "0x66eee"
      },
      "additionalContracts": [],
      "isFixedGasLimit": false
    },
    {
      "hash": null,
      "transactionType": "CALL",
      "contractName": null,
      "contractAddress": "0x9b96854113fefc8405f553d6323c150237c5280d",
      "function": null,
      "arguments": null,
      "transaction": {
        "from": "0x0c015c85340793854e7528943746447713e2c326",
        "to": "0x9b96854113fefc8405f553d6323c150237c5280d",
        "gas": "0x8341",
        "value": "0x11c37937e08000",
        "input": "0x",
        "nonce": "0x8dd",
        "chainId": "0x66eee"
      },
      "additionalContracts": [],
      "isFixedGasLimit": false
    },
    {
      "hash": null,
      "transactionType": "CALL",
      "contractName": null,
      "contractAddress": "0xa730efe70d3f67d08dd4a17a867c95bfe1f33cfa",
      "function": "mint(address,uint256)",
      "arguments": [
        "0x9b96854113FEfc8405f553d6323c150237C5280d",
        "1000000000"
      ],
      "transaction": {
        "from": "0x0c015c85340793854e7528943746447713e2c326",
        "to": "0xa730efe70d3f67d08dd4a17a867c95bfe1f33cfa",
        "gas": "0x12bec",
        "value": "0x0",
        "input": "0x40c10f190000000000000000000000009b96854113fefc8405f553d6323c150237c5280d000000000000000000000000000000000000000000000000000000003b9aca00",
        "nonce": "0x8de",
        "chainId": "0x66eee"
      },
      "additionalContracts": [],
      "isFixedGasLimit": false
    },
    {
      "hash": null,
      "transactionType": "CALL",
      "contractName": null,
      "contractAddress": "0xc7f974b3710560d070dec95288339efab683c417",
      "function": "mint(address,uint256)",
      "arguments": [
        "0x9b96854113FEfc8405f553d6323c150237C5280d",
        "1000000000"
      ],
      "transaction": {
        "from": "0x0c015c85340793854e7528943746447713e2c326",
        "to": "0xc7f974b3710560d070dec95288339efab683c417",
        "gas": "0x12bec",
        "value": "0x0",
        "input": "0x40c10f190000000000000000000000009b96854113fefc8405f553d6323c150237c5280d000000000000000000000000000000000000000000000000000000003b9aca00",
        "nonce": "0x8df",
        "chainId": "0x66eee"
      },
      "additionalContracts": [],
      "isFixedGasLimit": false
    },
    {
      "hash": null,
      "transactionType": "CALL",
      "contractName": null,
      "contractAddress": "0x82225d7fb76b961f03b063fdb5b25bee891e50b3",
      "function": null,
      "arguments": null,
      "transaction": {
        "from": "0x0c015c85340793854e7528943746447713e2c326",
        "to": "0x82225d7fb76b961f03b063fdb5b25bee891e50b3",
        "gas": "0x8341",
        "value": "0x11c37937e08000",
        "input": "0x",
        "nonce": "0x8e0",
        "chainId": "0x66eee"
      },
      "additionalContracts": [],
      "isFixedGasLimit": false
    },
    {
      "hash": null,
      "transactionType": "CALL",
      "contractName": null,
      "contractAddress": "0xa730efe70d3f67d08dd4a17a867c95bfe1f33cfa",
      "function": "mint(address,uint256)",
      "arguments": [
        "0x82225D7FB76b961F03B063fDB5B25BEE891e50B3",
        "1000000000"
      ],
      "transaction": {
        "from": "0x0c015c85340793854e7528943746447713e2c326",
        "to": "0xa730efe70d3f67d08dd4a17a867c95bfe1f33cfa",
        "gas": "0x12bec",
        "value": "0x0",
        "input": "0x40c10f1900000000000000000000000082225d7fb76b961f03b063fdb5b25bee891e50b3000000000000000000000000000000000000000000000000000000003b9aca00",
        "nonce": "0x8e1",
        "chainId": "0x66eee"
      },
      "additionalContracts": [],
      "isFixedGasLimit": false
    },
    {
      "hash": null,
      "transactionType": "CALL",
      "contractName": null,
      "contractAddress": "0xc7f974b3710560d070dec95288339efab683c417",
      "function": "mint(address,uint256)",
      "arguments": [
        "0x82225D7FB76b961F03B063fDB5B25BEE891e50B3",
        "1000000000"
      ],
      "transaction": {
        "from": "0x0c015c85340793854e7528943746447713e2c326",
        "to": "0xc7f974b3710560d070dec95288339efab683c417",
        "gas": "0x12bec",
        "value": "0x0",
        "input": "0x40c10f1900000000000000000000000082225d7fb76b961f03b063fdb5b25bee891e50b3000000000000000000000000000000000000000000000000000000003b9aca00",
        "nonce": "0x8e2",
        "chainId": "0x66eee"
      },
      "additionalContracts": [],
      "isFixedGasLimit": false
    },
    {
      "hash": null,
      "transactionType": "CALL",
      "contractName": null,
      "contractAddress": "0xa730efe70d3f67d08dd4a17a867c95bfe1f33cfa",
      "function": "approve(address,uint256)",
      "arguments": [
        "0xAaE3116210b866f00ccf8dCbD540A6Cc5d070d72",
        "1000000000"
      ],
      "transaction": {
        "from": "0x5f7215df3fbd70ddbb68cec0dc0a23e4ab77b562",
        "to": "0xa730efe70d3f67d08dd4a17a867c95bfe1f33cfa",
        "gas": "0x113ee",
        "value": "0x0",
        "input": "0x095ea7b3000000000000000000000000aae3116210b866f00ccf8dcbd540a6cc5d070d72000000000000000000000000000000000000000000000000000000003b9aca00",
        "nonce": "0x0",
        "chainId": "0x66eee"
      },
      "additionalContracts": [],
      "isFixedGasLimit": false
    },
    {
      "hash": null,
      "transactionType": "CALL",
      "contractName": null,
      "contractAddress": "0xaae3116210b866f00ccf8dcbd540a6cc5d070d72",
      "function": "deposit(address,uint256)",
      "arguments": [
        "0xA730eFe70d3f67d08dD4a17a867c95bFe1F33CfA",
        "1000000000"
      ],
      "transaction": {
        "from": "0x5f7215df3fbd70ddbb68cec0dc0a23e4ab77b562",
        "to": "0xaae3116210b866f00ccf8dcbd540a6cc5d070d72",
        "gas": "0x1a19a",
        "value": "0x0",
        "input": "0x47e7ef24000000000000000000000000a730efe70d3f67d08dd4a17a867c95bfe1f33cfa000000000000000000000000000000000000000000000000000000003b9aca00",
        "nonce": "0x1",
        "chainId": "0x66eee"
      },
      "additionalContracts": [],
      "isFixedGasLimit": false
    },
    {
      "hash": null,
      "transactionType": "CALL",
      "contractName": null,
      "contractAddress": "0xc7f974b3710560d070dec95288339efab683c417",
      "function": "approve(address,uint256)",
      "arguments": [
        "0xAaE3116210b866f00ccf8dCbD540A6Cc5d070d72",
        "1000000000"
      ],
      "transaction": {
        "from": "0x5f7215df3fbd70ddbb68cec0dc0a23e4ab77b562",
        "to": "0xc7f974b3710560d070dec95288339efab683c417",
        "gas": "0x112a5",
        "value": "0x0",
        "input": "0x095ea7b3000000000000000000000000aae3116210b866f00ccf8dcbd540a6cc5d070d72000000000000000000000000000000000000000000000000000000003b9aca00",
        "nonce": "0x2",
        "chainId": "0x66eee"
      },
      "additionalContracts": [],
      "isFixedGasLimit": false
    },
    {
      "hash": null,
      "transactionType": "CALL",
      "contractName": null,
      "contractAddress": "0xaae3116210b866f00ccf8dcbd540a6cc5d070d72",
      "function": "deposit(address,uint256)",
      "arguments": [
        "0xC7f974b3710560D070dEc95288339EfAB683C417",
        "1000000000"
      ],
      "transaction": {
        "from": "0x5f7215df3fbd70ddbb68cec0dc0a23e4ab77b562",
        "to": "0xaae3116210b866f00ccf8dcbd540a6cc5d070d72",
        "gas": "0x1a19a",
        "value": "0x0",
        "input": "0x47e7ef24000000000000000000000000c7f974b3710560d070dec95288339efab683c417000000000000000000000000000000000000000000000000000000003b9aca00",
        "nonce": "0x3",
        "chainId": "0x66eee"
      },
      "additionalContracts": [],
      "isFixedGasLimit": false
    },
    {
      "hash": null,
      "transactionType": "CALL",
      "contractName": null,
      "contractAddress": "0xa730efe70d3f67d08dd4a17a867c95bfe1f33cfa",
      "function": "approve(address,uint256)",
      "arguments": [
        "0xAaE3116210b866f00ccf8dCbD540A6Cc5d070d72",
        "1000000000"
      ],
      "transaction": {
        "from": "0xc480ff6dc39eb77d35f96caa281ef08ebcb63c94",
        "to": "0xa730efe70d3f67d08dd4a17a867c95bfe1f33cfa",
        "gas": "0x113ee",
        "value": "0x0",
        "input": "0x095ea7b3000000000000000000000000aae3116210b866f00ccf8dcbd540a6cc5d070d72000000000000000000000000000000000000000000000000000000003b9aca00",
        "nonce": "0x0",
        "chainId": "0x66eee"
      },
      "additionalContracts": [],
      "isFixedGasLimit": false
    },
    {
      "hash": null,
      "transactionType": "CALL",
      "contractName": null,
      "contractAddress": "0xaae3116210b866f00ccf8dcbd540a6cc5d070d72",
      "function": "deposit(address,uint256)",
      "arguments": [
        "0xA730eFe70d3f67d08dD4a17a867c95bFe1F33CfA",
        "1000000000"
      ],
      "transaction": {
        "from": "0xc480ff6dc39eb77d35f96caa281ef08ebcb63c94",
        "to": "0xaae3116210b866f00ccf8dcbd540a6cc5d070d72",
        "gas": "0x1a19a",
        "value": "0x0",
        "input": "0x47e7ef24000000000000000000000000a730efe70d3f67d08dd4a17a867c95bfe1f33cfa000000000000000000000000000000000000000000000000000000003b9aca00",
        "nonce": "0x1",
        "chainId": "0x66eee"
      },
      "additionalContracts": [],
      "isFixedGasLimit": false
    },
    {
      "hash": null,
      "transactionType": "CALL",
      "contractName": null,
      "contractAddress": "0xc7f974b3710560d070dec95288339efab683c417",
      "function": "approve(address,uint256)",
      "arguments": [
        "0xAaE3116210b866f00ccf8dCbD540A6Cc5d070d72",
        "1000000000"
      ],
      "transaction": {
        "from": "0xc480ff6dc39eb77d35f96caa281ef08ebcb63c94",
        "to": "0xc7f974b3710560d070dec95288339efab683c417",
        "gas": "0x112a5",
        "value": "0x0",
        "input": "0x095ea7b3000000000000000000000000aae3116210b866f00ccf8dcbd540a6cc5d070d72000000000000000000000000000000000000000000000000000000003b9aca00",
        "nonce": "0x2",
        "chainId": "0x66eee"
      },
      "additionalContracts": [],
      "isFixedGasLimit": false
    },
    {
      "hash": null,
      "transactionType": "CALL",
      "contractName": null,
      "contractAddress": "0xaae3116210b866f00ccf8dcbd540a6cc5d070d72",
      "function": "deposit(address,uint256)",
      "arguments": [
        "0xC7f974b3710560D070dEc95288339EfAB683C417",
        "1000000000"
      ],
      "transaction": {
        "from": "0xc480ff6dc39eb77d35f96caa281ef08ebcb63c94",
        "to": "0xaae3116210b866f00ccf8dcbd540a6cc5d070d72",
        "gas": "0x1a19a",
        "value": "0x0",
        "input": "0x47e7ef24000000000000000000000000c7f974b3710560d070dec95288339efab683c417000000000000000000000000000000000000000000000000000000003b9aca00",
        "nonce": "0x3",
        "chainId": "0x66eee"
      },
      "additionalContracts": [],
      "isFixedGasLimit": false
    },
    {
      "hash": null,
      "transactionType": "CALL",
      "contractName": null,
      "contractAddress": "0xa730efe70d3f67d08dd4a17a867c95bfe1f33cfa",
      "function": "approve(address,uint256)",
      "arguments": [
        "0xAaE3116210b866f00ccf8dCbD540A6Cc5d070d72",
        "1000000000"
      ],
      "transaction": {
        "from": "0x9b96854113fefc8405f553d6323c150237c5280d",
        "to": "0xa730efe70d3f67d08dd4a17a867c95bfe1f33cfa",
        "gas": "0x113ee",
        "value": "0x0",
        "input": "0x095ea7b3000000000000000000000000aae3116210b866f00ccf8dcbd540a6cc5d070d72000000000000000000000000000000000000000000000000000000003b9aca00",
        "nonce": "0x0",
        "chainId": "0x66eee"
      },
      "additionalContracts": [],
      "isFixedGasLimit": false
    },
    {
      "hash": null,
      "transactionType": "CALL",
      "contractName": null,
      "contractAddress": "0xaae3116210b866f00ccf8dcbd540a6cc5d070d72",
      "function": "deposit(address,uint256)",
      "arguments": [
        "0xA730eFe70d3f67d08dD4a17a867c95bFe1F33CfA",
        "1000000000"
      ],
      "transaction": {
        "from": "0x9b96854113fefc8405f553d6323c150237c5280d",
        "to": "0xaae3116210b866f00ccf8dcbd540a6cc5d070d72",
        "gas": "0x1a19a",
        "value": "0x0",
        "input": "0x47e7ef24000000000000000000000000a730efe70d3f67d08dd4a17a867c95bfe1f33cfa000000000000000000000000000000000000000000000000000000003b9aca00",
        "nonce": "0x1",
        "chainId": "0x66eee"
      },
      "additionalContracts": [],
      "isFixedGasLimit": false
    },
    {
      "hash": null,
      "transactionType": "CALL",
      "contractName": null,
      "contractAddress": "0xc7f974b3710560d070dec95288339efab683c417",
      "function": "approve(address,uint256)",
      "arguments": [
        "0xAaE3116210b866f00ccf8dCbD540A6Cc5d070d72",
        "1000000000"
      ],
      "transaction": {
        "from": "0x9b96854113fefc8405f553d6323c150237c5280d",
        "to": "0xc7f974b3710560d070dec95288339efab683c417",
        "gas": "0x112a5",
        "value": "0x0",
        "input": "0x095ea7b3000000000000000000000000aae3116210b866f00ccf8dcbd540a6cc5d070d72000000000000000000000000000000000000000000000000000000003b9aca00",
        "nonce": "0x2",
        "chainId": "0x66eee"
      },
      "additionalContracts": [],
      "isFixedGasLimit": false
    },
    {
      "hash": null,
      "transactionType": "CALL",
      "contractName": null,
      "contractAddress": "0xaae3116210b866f00ccf8dcbd540a6cc5d070d72",
      "function": "deposit(address,uint256)",
      "arguments": [
        "0xC7f974b3710560D070dEc95288339EfAB683C417",
        "1000000000"
      ],
      "transaction": {
        "from": "0x9b96854113fefc8405f553d6323c150237c5280d",
        "to": "0xaae3116210b866f00ccf8dcbd540a6cc5d070d72",
        "gas": "0x1a19a",
        "value": "0x0",
        "input": "0x47e7ef24000000000000000000000000c7f974b3710560d070dec95288339efab683c417000000000000000000000000000000000000000000000000000000003b9aca00",
        "nonce": "0x3",
        "chainId": "0x66eee"
      },
      "additionalContracts": [],
      "isFixedGasLimit": false
    },
    {
      "hash": null,
      "transactionType": "CALL",
      "contractName": null,
      "contractAddress": "0xa730efe70d3f67d08dd4a17a867c95bfe1f33cfa",
      "function": "approve(address,uint256)",
      "arguments": [
        "0xAaE3116210b866f00ccf8dCbD540A6Cc5d070d72",
        "1000000000"
      ],
      "transaction": {
        "from": "0x82225d7fb76b961f03b063fdb5b25bee891e50b3",
        "to": "0xa730efe70d3f67d08dd4a17a867c95bfe1f33cfa",
        "gas": "0x113ee",
        "value": "0x0",
        "input": "0x095ea7b3000000000000000000000000aae3116210b866f00ccf8dcbd540a6cc5d070d72000000000000000000000000000000000000000000000000000000003b9aca00",
        "nonce": "0x0",
        "chainId": "0x66eee"
      },
      "additionalContracts": [],
      "isFixedGasLimit": false
    },
    {
      "hash": null,
      "transactionType": "CALL",
      "contractName": null,
      "contractAddress": "0xaae3116210b866f00ccf8dcbd540a6cc5d070d72",
      "function": "deposit(address,uint256)",
      "arguments": [
        "0xA730eFe70d3f67d08dD4a17a867c95bFe1F33CfA",
        "1000000000"
      ],
      "transaction": {
        "from": "0x82225d7fb76b961f03b063fdb5b25bee891e50b3",
        "to": "0xaae3116210b866f00ccf8dcbd540a6cc5d070d72",
        "gas": "0x1a19a",
        "value": "0x0",
        "input": "0x47e7ef24000000000000000000000000a730efe70d3f67d08dd4a17a867c95bfe1f33cfa000000000000000000000000000000000000000000000000000000003b9aca00",
        "nonce": "0x1",
        "chainId": "0x66eee"
      },
      "additionalContracts": [],
      "isFixedGasLimit": false
    },
    {
      "hash": null,
      "transactionType": "CALL",
      "contractName": null,
      "contractAddress": "0xc7f974b3710560d070dec95288339efab683c417",
      "function": "approve(address,uint256)",
      "arguments": [
        "0xAaE3116210b866f00ccf8dCbD540A6Cc5d070d72",
        "1000000000"
      ],
      "transaction": {
        "from": "0x82225d7fb76b961f03b063fdb5b25bee891e50b3",
        "to": "0xc7f974b3710560d070dec95288339efab683c417",
        "gas": "0x112a5",
        "value": "0x0",
        "input": "0x095ea7b3000000000000000000000000aae3116210b866f00ccf8dcbd540a6cc5d070d72000000000000000000000000000000000000000000000000000000003b9aca00",
        "nonce": "0x2",
        "chainId": "0x66eee"
      },
      "additionalContracts": [],
      "isFixedGasLimit": false
    },
    {
      "hash": null,
      "transactionType": "CALL",
      "contractName": null,
      "contractAddress": "0xaae3116210b866f00ccf8dcbd540a6cc5d070d72",
      "function": "deposit(address,uint256)",
      "arguments": [
        "0xC7f974b3710560D070dEc95288339EfAB683C417",
        "1000000000"
      ],
      "transaction": {
        "from": "0x82225d7fb76b961f03b063fdb5b25bee891e50b3",
        "to": "0xaae3116210b866f00ccf8dcbd540a6cc5d070d72",
        "gas": "0x1a19a",
        "value": "0x0",
        "input": "0x47e7ef24000000000000000000000000c7f974b3710560d070dec95288339efab683c417000000000000000000000000000000000000000000000000000000003b9aca00",
        "nonce": "0x3",
        "chainId": "0x66eee"
      },
      "additionalContracts": [],
      "isFixedGasLimit": false
    }
  ],
  "receipts": [
    {
      "status": "0x1",
      "cumulativeGasUsed": "0x3525e",
      "logs": [],
      "logsBloom": "0x00000000000000000000000000000000000000000000000000000000000000000000000000000000000000000000000000000000000000000000000000000000000000000000000000000000000000000000000000000000000000000000000000000000000000000000000000000000000000000000000000000000000000000000000000000000000000000000000000000000000000000000000000000000000000000000000000000000000000000000000000000000000000000000000000000000000000000000000000000000000000000000000000000000000000000000000000000000000000000000000000000000000000000000000000000000",
      "type": "0x2",
      "transactionHash": "0x21bbefbc1df31c4e888b06b4faf57d8dead19bb8cb16ddb4f8b498d6401f9ea9",
      "transactionIndex": "0x5",
      "blockHash": "0x8416e607944269f1735de42f065106ec5cfa91fd18287b8c26e95970ba95539f",
      "blockNumber": "0x10923a3a",
      "gasUsed": "0x5f51",
      "effectiveGasPrice": "0x1341330",
      "from": "0x0c015c85340793854e7528943746447713e2c326",
      "to": "0x5f7215df3fbd70ddbb68cec0dc0a23e4ab77b562",
      "contractAddress": null,
      "gasUsedForL1": "0xd49",
      "l1BlockNumber": "0xa9041c",
      "timeboosted": false
    },
    {
      "status": "0x1",
      "cumulativeGasUsed": "0x1ba38",
      "logs": [
        {
          "address": "0xa730efe70d3f67d08dd4a17a867c95bfe1f33cfa",
          "topics": [
            "0xddf252ad1be2c89b69c2b068fc378daa952ba7f163c4a11628f55a4df523b3ef",
            "0x0000000000000000000000000000000000000000000000000000000000000000",
            "0x0000000000000000000000005f7215df3fbd70ddbb68cec0dc0a23e4ab77b562"
          ],
          "data": "0x000000000000000000000000000000000000000000000000000000003b9aca00",
          "blockHash": "0x69bf3132cecaabd12c6f30b4467cc01a623a3a7c05ccf3a3be2061deb0261550",
          "blockNumber": "0x10923a42",
          "blockTimestamp": "0x6a31fa3f",
          "transactionHash": "0xfd1f425c2d60a942bcdb6e8d5bc43a77209d82bae441a75a785707b133065360",
          "transactionIndex": "0x2",
          "logIndex": "0x1",
          "removed": false
        }
      ],
      "logsBloom": "0x00000000000000000000000000000000000000000000000000000000000000000000000000000000000000000000000000000000000000000000000000000000000000000040000000000008000000000000000000000080000000000000000000000000020000000000000000000800000000000000000000000010200000000000000000000000100000000100000000000000000000000000000000000000000000000000000000000000000000000000000000000000000000000000000000000002000000800000000000000000000000000000000000000000000020000000000000000000000000000000000000000000000000000000000000000000",
      "type": "0x2",
      "transactionHash": "0xfd1f425c2d60a942bcdb6e8d5bc43a77209d82bae441a75a785707b133065360",
      "transactionIndex": "0x2",
      "blockHash": "0x69bf3132cecaabd12c6f30b4467cc01a623a3a7c05ccf3a3be2061deb0261550",
      "blockNumber": "0x10923a42",
      "gasUsed": "0xde8d",
      "effectiveGasPrice": "0x13330a0",
      "from": "0x0c015c85340793854e7528943746447713e2c326",
      "to": "0xa730efe70d3f67d08dd4a17a867c95bfe1f33cfa",
      "contractAddress": null,
      "gasUsedForL1": "0x1442",
      "l1BlockNumber": "0xa9041c",
      "timeboosted": false
    },
    {
      "status": "0x1",
      "cumulativeGasUsed": "0xdea0",
      "logs": [
        {
          "address": "0xc7f974b3710560d070dec95288339efab683c417",
          "topics": [
            "0xddf252ad1be2c89b69c2b068fc378daa952ba7f163c4a11628f55a4df523b3ef",
            "0x0000000000000000000000000000000000000000000000000000000000000000",
            "0x0000000000000000000000005f7215df3fbd70ddbb68cec0dc0a23e4ab77b562"
          ],
          "data": "0x000000000000000000000000000000000000000000000000000000003b9aca00",
          "blockHash": "0x1943c302544a638860fa39df42e6d8acb9c41403f0ff02ce758e75c71e36e4bf",
          "blockNumber": "0x10923a4e",
          "blockTimestamp": "0x6a31fa42",
          "transactionHash": "0x571c56ac2baf2cca1d4dc01688563bd0659eb4183d67554ad0ae8d0a1d807b17",
          "transactionIndex": "0x1",
          "logIndex": "0x0",
          "removed": false
        }
      ],
      "logsBloom": "0x00000000000000000000000000000000000000000800000000000000000000000000000000000000000000004000000000000000000000000000000000000000000000000040000000000008000000000000000000000000000000000000000000000000020000000000000000000800000000000000000000000010000000000000000000000000100000000000000000000000000000000000000000000000000000000000000000000000000000000000000000000000000000000000000000000002000000800000000000000000000000000000000000000000000020000000000080000000000000000000000000000000000000000000000000000000",
      "type": "0x2",
      "transactionHash": "0x571c56ac2baf2cca1d4dc01688563bd0659eb4183d67554ad0ae8d0a1d807b17",
      "transactionIndex": "0x1",
      "blockHash": "0x1943c302544a638860fa39df42e6d8acb9c41403f0ff02ce758e75c71e36e4bf",
      "blockNumber": "0x10923a4e",
      "gasUsed": "0xdea0",
      "effectiveGasPrice": "0x1321f30",
      "from": "0x0c015c85340793854e7528943746447713e2c326",
      "to": "0xc7f974b3710560d070dec95288339efab683c417",
      "contractAddress": null,
      "gasUsedForL1": "0x1455",
      "l1BlockNumber": "0xa9041c",
      "timeboosted": false
    },
    {
      "status": "0x1",
      "cumulativeGasUsed": "0xcc45e8",
      "logs": [],
      "logsBloom": "0x00000000000000000000000000000000000000000000000000000000000000000000000000000000000000000000000000000000000000000000000000000000000000000000000000000000000000000000000000000000000000000000000000000000000000000000000000000000000000000000000000000000000000000000000000000000000000000000000000000000000000000000000000000000000000000000000000000000000000000000000000000000000000000000000000000000000000000000000000000000000000000000000000000000000000000000000000000000000000000000000000000000000000000000000000000000",
      "type": "0x2",
      "transactionHash": "0xd26ea4cb15da18303bc81aa8ffbb796f8a1e0ec58d175f241bfb37bfc972ccbc",
      "transactionIndex": "0x9",
      "blockHash": "0x5fa5b0cdf398d6b14f83a17921708d8d3a7ce53ee6adaccb18340d147956b3b8",
      "blockNumber": "0x10923a59",
      "gasUsed": "0x5f5f",
      "effectiveGasPrice": "0x132cb10",
      "from": "0x0c015c85340793854e7528943746447713e2c326",
      "to": "0xc480ff6dc39eb77d35f96caa281ef08ebcb63c94",
      "contractAddress": null,
      "gasUsedForL1": "0xd57",
      "l1BlockNumber": "0xa9041c",
      "timeboosted": false
    },
    {
      "status": "0x1",
      "cumulativeGasUsed": "0x6d37a",
      "logs": [
        {
          "address": "0xa730efe70d3f67d08dd4a17a867c95bfe1f33cfa",
          "topics": [
            "0xddf252ad1be2c89b69c2b068fc378daa952ba7f163c4a11628f55a4df523b3ef",
            "0x0000000000000000000000000000000000000000000000000000000000000000",
            "0x000000000000000000000000c480ff6dc39eb77d35f96caa281ef08ebcb63c94"
          ],
          "data": "0x000000000000000000000000000000000000000000000000000000003b9aca00",
          "blockHash": "0xdc53087b5a5628444f01295ba231b5bab88ae96e68f768fb354438c2a4a23b6e",
          "blockNumber": "0x10923a61",
          "blockTimestamp": "0x6a31fa46",
          "transactionHash": "0x65dbec1c9c91a7869ed6e81674257158b3a601b649b32ca2fd7ae9cd1eac70b6",
          "transactionIndex": "0x2",
          "logIndex": "0x4",
          "removed": false
        }
      ],
      "logsBloom": "0x00000000100000000000000000000000000000000000000000000000000000000000000000000000000000000000800000000000000000000000000000000000000000000000000000000008000000000000000000000080000000000000000000000000020000000000000000000800000000000000000000000010200000000000000000000000000000000100000000000000000000000000000000000000000000000000000000000000000000000000000000000000000000000000000000000002000000000000000000000000000000000000000000000000000020000000000008000000000000000000000000000000000000000000000000000000",
      "type": "0x2",
      "transactionHash": "0x65dbec1c9c91a7869ed6e81674257158b3a601b649b32ca2fd7ae9cd1eac70b6",
      "transactionIndex": "0x2",
      "blockHash": "0xdc53087b5a5628444f01295ba231b5bab88ae96e68f768fb354438c2a4a23b6e",
      "blockNumber": "0x10923a61",
      "gasUsed": "0xdea3",
      "effectiveGasPrice": "0x131e880",
      "from": "0x0c015c85340793854e7528943746447713e2c326",
      "to": "0xa730efe70d3f67d08dd4a17a867c95bfe1f33cfa",
      "contractAddress": null,
      "gasUsedForL1": "0x1458",
      "l1BlockNumber": "0xa9041c",
      "timeboosted": false
    }
  ],
  "libraries": [],
  "pending": [],
  "returns": {},
  "timestamp": 1781660232,
  "chain": 421614,
  "commit": "c560bea"
}