{
  "transactions": [
    {
      "hash": "0xd71e9e78ff1b9d0bf8c1100743e5e0c1729bc9c3cbd848cd67d7fb09e29f529c",
      "transactionType": "CALL",
      "contractName": null,
      "contractAddress": "0x5f7215df3fbd70ddbb68cec0dc0a23e4ab77b562",
      "function": null,
      "arguments": null,
      "transaction": {
        "from": "0x0c015c85340793854e7528943746447713e2c326",
        "to": "0x5f7215df3fbd70ddbb68cec0dc0a23e4ab77b562",
        "gas": "0x792a",
        "value": "0x11c37937e08000",
        "input": "0x",
        "nonce": "0x8dd",
        "chainId": "0x66eee"
      },
      "additionalContracts": [],
      "isFixedGasLimit": false
    },
    {
      "hash": "0x94b4e01ee55d4d58e7d9ddaf639daa5ddaba455cada685c8eb9b125d11023963",
      "transactionType": "CALL",
      "contractName": null,
      "contractAddress": "0xa730efe70d3f67d08dd4a17a867c95bfe1f33cfa",
      "function": "mint(address,uint256)",
      "arguments": [
        "0x5f7215df3fbd70DDbb68CeC0dC0a23E4Ab77b562",
        "1000000000"
      ],
      "transaction": {
        "from": "0x0c015c85340793854e7528943746447713e2c326",
        "to": "0xa730efe70d3f67d08dd4a17a867c95bfe1f33cfa",
        "gas": "0xc461",
        "value": "0x0",
        "input": "0x40c10f190000000000000000000000005f7215df3fbd70ddbb68cec0dc0a23e4ab77b562000000000000000000000000000000000000000000000000000000003b9aca00",
        "nonce": "0x8de",
        "chainId": "0x66eee"
      },
      "additionalContracts": [],
      "isFixedGasLimit": false
    },
    {
      "hash": null,
      "transactionType": "CALL",
      "contractName": null,
      "contractAddress": "0xc7f974b3710560d070dec95288339efab683c417",
      "function": "mint(address,uint256)",
      "arguments": [
        "0x5f7215df3fbd70DDbb68CeC0dC0a23E4Ab77b562",
        "1000000000"
      ],
      "transaction": {
        "from": "0x0c015c85340793854e7528943746447713e2c326",
        "to": "0xc7f974b3710560d070dec95288339efab683c417",
        "gas": "0xc461",
        "value": "0x0",
        "input": "0x40c10f190000000000000000000000005f7215df3fbd70ddbb68cec0dc0a23e4ab77b562000000000000000000000000000000000000000000000000000000003b9aca00",
        "nonce": "0x8df",
        "chainId": "0x66eee"
      },
      "additionalContracts": [],
      "isFixedGasLimit": false
    },
    {
      "hash": null,
      "transactionType": "CALL",
      "contractName": null,
      "contractAddress": "0xc480ff6dc39eb77d35f96caa281ef08ebcb63c94",
      "function": null,
      "arguments": null,
      "transaction": {
        "from": "0x0c015c85340793854e7528943746447713e2c326",
        "to": "0xc480ff6dc39eb77d35f96caa281ef08ebcb63c94",
        "gas": "0x792a",
        "value": "0x11c37937e08000",
        "input": "0x",
        "nonce": "0x8e0",
        "chainId": "0x66eee"
      },
      "additionalContracts": [],
      "isFixedGasLimit": false
    },
    {
      "hash": null,
      "transactionType": "CALL",
      "contractName": null,
      "contractAddress": "0xa730efe70d3f67d08dd4a17a867c95bfe1f33cfa",
      "function": "mint(address,uint256)",
      "arguments": [
        "0xC480FF6Dc39Eb77D35F96CaA281EF08EBcB63C94",
        "1000000000"
      ],
      "transaction": {
        "from": "0x0c015c85340793854e7528943746447713e2c326",
        "to": "0xa730efe70d3f67d08dd4a17a867c95bfe1f33cfa",
        "gas": "0xc461",
        "value": "0x0",
        "input": "0x40c10f19000000000000000000000000c480ff6dc39eb77d35f96caa281ef08ebcb63c94000000000000000000000000000000000000000000000000000000003b9aca00",
        "nonce": "0x8e1",
        "chainId": "0x66eee"
      },
      "additionalContracts": [],
      "isFixedGasLimit": false
    },
    {
      "hash": null,
      "transactionType": "CALL",
      "contractName": null,
      "contractAddress": "0xc7f974b3710560d070dec95288339efab683c417",
      "function": "mint(address,uint256)",
      "arguments": [
        "0xC480FF6Dc39Eb77D35F96CaA281EF08EBcB63C94",
        "1000000000"
      ],
      "transaction": {
        "from": "0x0c015c85340793854e7528943746447713e2c326",
        "to": "0xc7f974b3710560d070dec95288339efab683c417",
        "gas": "0xc461",
        "value": "0x0",
        "input": "0x40c10f19000000000000000000000000c480ff6dc39eb77d35f96caa281ef08ebcb63c94000000000000000000000000000000000000000000000000000000003b9aca00",
        "nonce": "0x8e2",
        "chainId": "0x66eee"
      },
      "additionalContracts": [],
      "isFixedGasLimit": false
    },
    {
      "hash": null,
      "transactionType": "CALL",
      "contractName": null,
      "contractAddress": "0x9b96854113fefc8405f553d6323c150237c5280d",
      "function": null,
      "arguments": null,
      "transaction": {
        "from": "0x0c015c85340793854e7528943746447713e2c326",
        "to": "0x9b96854113fefc8405f553d6323c150237c5280d",
        "gas": "0x792a",
        "value": "0x11c37937e08000",
        "input": "0x",
        "nonce": "0x8e3",
        "chainId": "0x66eee"
      },
      "additionalContracts": [],
      "isFixedGasLimit": false
    },
    {
      "hash": null,
      "transactionType": "CALL",
      "contractName": null,
      "contractAddress": "0xa730efe70d3f67d08dd4a17a867c95bfe1f33cfa",
      "function": "mint(address,uint256)",
      "arguments": [
        "0x9b96854113FEfc8405f553d6323c150237C5280d",
        "1000000000"
      ],
      "transaction": {
        "from": "0x0c015c85340793854e7528943746447713e2c326",
        "to": "0xa730efe70d3f67d08dd4a17a867c95bfe1f33cfa",
        "gas": "0x11d6e",
        "value": "0x0",
        "input": "0x40c10f190000000000000000000000009b96854113fefc8405f553d6323c150237c5280d000000000000000000000000000000000000000000000000000000003b9aca00",
        "nonce": "0x8e4",
        "chainId": "0x66eee"
      },
      "additionalContracts": [],
      "isFixedGasLimit": false
    },
    {
      "hash": null,
      "transactionType": "CALL",
      "contractName": null,
      "contractAddress": "0xc7f974b3710560d070dec95288339efab683c417",
      "function": "mint(address,uint256)",
      "arguments": [
        "0x9b96854113FEfc8405f553d6323c150237C5280d",
        "1000000000"
      ],
      "transaction": {
        "from": "0x0c015c85340793854e7528943746447713e2c326",
        "to": "0xc7f974b3710560d070dec95288339efab683c417",
        "gas": "0x11d6e",
        "value": "0x0",
        "input": "0x40c10f190000000000000000000000009b96854113fefc8405f553d6323c150237c5280d000000000000000000000000000000000000000000000000000000003b9aca00",
        "nonce": "0x8e5",
        "chainId": "0x66eee"
      },
      "additionalContracts": [],
      "isFixedGasLimit": false
    },
    {
      "hash": null,
      "transactionType": "CALL",
      "contractName": null,
      "contractAddress": "0x82225d7fb76b961f03b063fdb5b25bee891e50b3",
      "function": null,
      "arguments": null,
      "transaction": {
        "from": "0x0c015c85340793854e7528943746447713e2c326",
        "to": "0x82225d7fb76b961f03b063fdb5b25bee891e50b3",
        "gas": "0x792a",
        "value": "0x11c37937e08000",
        "input": "0x",
        "nonce": "0x8e6",
        "chainId": "0x66eee"
      },
      "additionalContracts": [],
      "isFixedGasLimit": false
    },
    {
      "hash": null,
      "transactionType": "CALL",
      "contractName": null,
      "contractAddress": "0xa730efe70d3f67d08dd4a17a867c95bfe1f33cfa",
      "function": "mint(address,uint256)",
      "arguments": [
        "0x82225D7FB76b961F03B063fDB5B25BEE891e50B3",
        "1000000000"
      ],
      "transaction": {
        "from": "0x0c015c85340793854e7528943746447713e2c326",
        "to": "0xa730efe70d3f67d08dd4a17a867c95bfe1f33cfa",
        "gas": "0x11d6e",
        "value": "0x0",
        "input": "0x40c10f1900000000000000000000000082225d7fb76b961f03b063fdb5b25bee891e50b3000000000000000000000000000000000000000000000000000000003b9aca00",
        "nonce": "0x8e7",
        "chainId": "0x66eee"
      },
      "additionalContracts": [],
      "isFixedGasLimit": false
    },
    {
      "hash": null,
      "transactionType": "CALL",
      "contractName": null,
      "contractAddress": "0xc7f974b3710560d070dec95288339efab683c417",
      "function": "mint(address,uint256)",
      "arguments": [
        "0x82225D7FB76b961F03B063fDB5B25BEE891e50B3",
        "1000000000"
      ],
      "transaction": {
        "from": "0x0c015c85340793854e7528943746447713e2c326",
        "to": "0xc7f974b3710560d070dec95288339efab683c417",
        "gas": "0x11d6e",
        "value": "0x0",
        "input": "0x40c10f1900000000000000000000000082225d7fb76b961f03b063fdb5b25bee891e50b3000000000000000000000000000000000000000000000000000000003b9aca00",
        "nonce": "0x8e8",
        "chainId": "0x66eee"
      },
      "additionalContracts": [],
      "isFixedGasLimit": false
    },
    {
      "hash": null,
      "transactionType": "CALL",
      "contractName": null,
      "contractAddress": "0xa730efe70d3f67d08dd4a17a867c95bfe1f33cfa",
      "function": "approve(address,uint256)",
      "arguments": [
        "0xAaE3116210b866f00ccf8dCbD540A6Cc5d070d72",
        "1000000000"
      ],
      "transaction": {
        "from": "0x5f7215df3fbd70ddbb68cec0dc0a23e4ab77b562",
        "to": "0xa730efe70d3f67d08dd4a17a867c95bfe1f33cfa",
        "gas": "0x10305",
        "value": "0x0",
        "input": "0x095ea7b3000000000000000000000000aae3116210b866f00ccf8dcbd540a6cc5d070d72000000000000000000000000000000000000000000000000000000003b9aca00",
        "nonce": "0x0",
        "chainId": "0x66eee"
      },
      "additionalContracts": [],
      "isFixedGasLimit": false
    },
    {
      "hash": null,
      "transactionType": "CALL",
      "contractName": null,
      "contractAddress": "0xaae3116210b866f00ccf8dcbd540a6cc5d070d72",
      "function": "deposit(address,uint256)",
      "arguments": [
        "0xA730eFe70d3f67d08dD4a17a867c95bFe1F33CfA",
        "1000000000"
      ],
      "transaction": {
        "from": "0x5f7215df3fbd70ddbb68cec0dc0a23e4ab77b562",
        "to": "0xaae3116210b866f00ccf8dcbd540a6cc5d070d72",
        "gas": "0x1bd06",
        "value": "0x0",
        "input": "0x47e7ef24000000000000000000000000a730efe70d3f67d08dd4a17a867c95bfe1f33cfa000000000000000000000000000000000000000000000000000000003b9aca00",
        "nonce": "0x1",
        "chainId": "0x66eee"
      },
      "additionalContracts": [],
      "isFixedGasLimit": false
    },
    {
      "hash": null,
      "transactionType": "CALL",
      "contractName": null,
      "contractAddress": "0xc7f974b3710560d070dec95288339efab683c417",
      "function": "approve(address,uint256)",
      "arguments": [
        "0xAaE3116210b866f00ccf8dCbD540A6Cc5d070d72",
        "1000000000"
      ],
      "transaction": {
        "from": "0x5f7215df3fbd70ddbb68cec0dc0a23e4ab77b562",
        "to": "0xc7f974b3710560d070dec95288339efab683c417",
        "gas": "0x1024d",
        "value": "0x0",
        "input": "0x095ea7b3000000000000000000000000aae3116210b866f00ccf8dcbd540a6cc5d070d72000000000000000000000000000000000000000000000000000000003b9aca00",
        "nonce": "0x2",
        "chainId": "0x66eee"
      },
      "additionalContracts": [],
      "isFixedGasLimit": false
    },
    {
      "hash": null,
      "transactionType": "CALL",
      "contractName": null,
      "contractAddress": "0xaae3116210b866f00ccf8dcbd540a6cc5d070d72",
      "function": "deposit(address,uint256)",
      "arguments": [
        "0xC7f974b3710560D070dEc95288339EfAB683C417",
        "1000000000"
      ],
      "transaction": {
        "from": "0x5f7215df3fbd70ddbb68cec0dc0a23e4ab77b562",
        "to": "0xaae3116210b866f00ccf8dcbd540a6cc5d070d72",
        "gas": "0x1bd06",
        "value": "0x0",
        "input": "0x47e7ef24000000000000000000000000c7f974b3710560d070dec95288339efab683c417000000000000000000000000000000000000000000000000000000003b9aca00",
        "nonce": "0x3",
        "chainId": "0x66eee"
      },
      "additionalContracts": [],
      "isFixedGasLimit": false
    },
    {
      "hash": null,
      "transactionType": "CALL",
      "contractName": null,
      "contractAddress": "0xa730efe70d3f67d08dd4a17a867c95bfe1f33cfa",
      "function": "approve(address,uint256)",
      "arguments": [
        "0xAaE3116210b866f00ccf8dCbD540A6Cc5d070d72",
        "1000000000"
      ],
      "transaction": {
        "from": "0xc480ff6dc39eb77d35f96caa281ef08ebcb63c94",
        "to": "0xa730efe70d3f67d08dd4a17a867c95bfe1f33cfa",
        "gas": "0x10305",
        "value": "0x0",
        "input": "0x095ea7b3000000000000000000000000aae3116210b866f00ccf8dcbd540a6cc5d070d72000000000000000000000000000000000000000000000000000000003b9aca00",
        "nonce": "0x0",
        "chainId": "0x66eee"
      },
      "additionalContracts": [],
      "isFixedGasLimit": false
    },
    {
      "hash": null,
      "transactionType": "CALL",
      "contractName": null,
      "contractAddress": "0xaae3116210b866f00ccf8dcbd540a6cc5d070d72",
      "function": "deposit(address,uint256)",
      "arguments": [
        "0xA730eFe70d3f67d08dD4a17a867c95bFe1F33CfA",
        "1000000000"
      ],
      "transaction": {
        "from": "0xc480ff6dc39eb77d35f96caa281ef08ebcb63c94",
        "to": "0xaae3116210b866f00ccf8dcbd540a6cc5d070d72",
        "gas": "0x1bd06",
        "value": "0x0",
        "input": "0x47e7ef24000000000000000000000000a730efe70d3f67d08dd4a17a867c95bfe1f33cfa000000000000000000000000000000000000000000000000000000003b9aca00",
        "nonce": "0x1",
        "chainId": "0x66eee"
      },
      "additionalContracts": [],
      "isFixedGasLimit": false
    },
    {
      "hash": null,
      "transactionType": "CALL",
      "contractName": null,
      "contractAddress": "0xc7f974b3710560d070dec95288339efab683c417",
      "function": "approve(address,uint256)",
      "arguments": [
        "0xAaE3116210b866f00ccf8dCbD540A6Cc5d070d72",
        "1000000000"
      ],
      "transaction": {
        "from": "0xc480ff6dc39eb77d35f96caa281ef08ebcb63c94",
        "to": "0xc7f974b3710560d070dec95288339efab683c417",
        "gas": "0x1024d",
        "value": "0x0",
        "input": "0x095ea7b3000000000000000000000000aae3116210b866f00ccf8dcbd540a6cc5d070d72000000000000000000000000000000000000000000000000000000003b9aca00",
        "nonce": "0x2",
        "chainId": "0x66eee"
      },
      "additionalContracts": [],
      "isFixedGasLimit": false
    },
    {
      "hash": null,
      "transactionType": "CALL",
      "contractName": null,
      "contractAddress": "0xaae3116210b866f00ccf8dcbd540a6cc5d070d72",
      "function": "deposit(address,uint256)",
      "arguments": [
        "0xC7f974b3710560D070dEc95288339EfAB683C417",
        "1000000000"
      ],
      "transaction": {
        "from": "0xc480ff6dc39eb77d35f96caa281ef08ebcb63c94",
        "to": "0xaae3116210b866f00ccf8dcbd540a6cc5d070d72",
        "gas": "0x1bd06",
        "value": "0x0",
        "input": "0x47e7ef24000000000000000000000000c7f974b3710560d070dec95288339efab683c417000000000000000000000000000000000000000000000000000000003b9aca00",
        "nonce": "0x3",
        "chainId": "0x66eee"
      },
      "additionalContracts": [],
      "isFixedGasLimit": false
    },
    {
      "hash": null,
      "transactionType": "CALL",
      "contractName": null,
      "contractAddress": "0xa730efe70d3f67d08dd4a17a867c95bfe1f33cfa",
      "function": "approve(address,uint256)",
      "arguments": [
        "0xAaE3116210b866f00ccf8dCbD540A6Cc5d070d72",
        "1000000000"
      ],
      "transaction": {
        "from": "0x9b96854113fefc8405f553d6323c150237c5280d",
        "to": "0xa730efe70d3f67d08dd4a17a867c95bfe1f33cfa",
        "gas": "0x10305",
        "value": "0x0",
        "input": "0x095ea7b3000000000000000000000000aae3116210b866f00ccf8dcbd540a6cc5d070d72000000000000000000000000000000000000000000000000000000003b9aca00",
        "nonce": "0x0",
        "chainId": "0x66eee"
      },
      "additionalContracts": [],
      "isFixedGasLimit": false
    },
    {
      "hash": null,
      "transactionType": "CALL",
      "contractName": null,
      "contractAddress": "0xaae3116210b866f00ccf8dcbd540a6cc5d070d72",
      "function": "deposit(address,uint256)",
      "arguments": [
        "0xA730eFe70d3f67d08dD4a17a867c95bFe1F33CfA",
        "1000000000"
      ],
      "transaction": {
        "from": "0x9b96854113fefc8405f553d6323c150237c5280d",
        "to": "0xaae3116210b866f00ccf8dcbd540a6cc5d070d72",
        "gas": "0x1a19a",
        "value": "0x0",
        "input": "0x47e7ef24000000000000000000000000a730efe70d3f67d08dd4a17a867c95bfe1f33cfa000000000000000000000000000000000000000000000000000000003b9aca00",
        "nonce": "0x1",
        "chainId": "0x66eee"
      },
      "additionalContracts": [],
      "isFixedGasLimit": false
    },
    {
      "hash": null,
      "transactionType": "CALL",
      "contractName": null,
      "contractAddress": "0xc7f974b3710560d070dec95288339efab683c417",
      "function": "approve(address,uint256)",
      "arguments": [
        "0xAaE3116210b866f00ccf8dCbD540A6Cc5d070d72",
        "1000000000"
      ],
      "transaction": {
        "from": "0x9b96854113fefc8405f553d6323c150237c5280d",
        "to": "0xc7f974b3710560d070dec95288339efab683c417",
        "gas": "0x1024d",
        "value": "0x0",
        "input": "0x095ea7b3000000000000000000000000aae3116210b866f00ccf8dcbd540a6cc5d070d72000000000000000000000000000000000000000000000000000000003b9aca00",
        "nonce": "0x2",
        "chainId": "0x66eee"
      },
      "additionalContracts": [],
      "isFixedGasLimit": false
    },
    {
      "hash": null,
      "transactionType": "CALL",
      "contractName": null,
      "contractAddress": "0xaae3116210b866f00ccf8dcbd540a6cc5d070d72",
      "function": "deposit(address,uint256)",
      "arguments": [
        "0xC7f974b3710560D070dEc95288339EfAB683C417",
        "1000000000"
      ],
      "transaction": {
        "from": "0x9b96854113fefc8405f553d6323c150237c5280d",
        "to": "0xaae3116210b866f00ccf8dcbd540a6cc5d070d72",
        "gas": "0x1a19a",
        "value": "0x0",
        "input": "0x47e7ef24000000000000000000000000c7f974b3710560d070dec95288339efab683c417000000000000000000000000000000000000000000000000000000003b9aca00",
        "nonce": "0x3",
        "chainId": "0x66eee"
      },
      "additionalContracts": [],
      "isFixedGasLimit": false
    },
    {
      "hash": null,
      "transactionType": "CALL",
      "contractName": null,
      "contractAddress": "0xa730efe70d3f67d08dd4a17a867c95bfe1f33cfa",
      "function": "approve(address,uint256)",
      "arguments": [
        "0xAaE3116210b866f00ccf8dCbD540A6Cc5d070d72",
        "1000000000"
      ],
      "transaction": {
        "from": "0x82225d7fb76b961f03b063fdb5b25bee891e50b3",
        "to": "0xa730efe70d3f67d08dd4a17a867c95bfe1f33cfa",
        "gas": "0x10305",
        "value": "0x0",
        "input": "0x095ea7b3000000000000000000000000aae3116210b866f00ccf8dcbd540a6cc5d070d72000000000000000000000000000000000000000000000000000000003b9aca00",
        "nonce": "0x0",
        "chainId": "0x66eee"
      },
      "additionalContracts": [],
      "isFixedGasLimit": false
    },
    {
      "hash": null,
      "transactionType": "CALL",
      "contractName": null,
      "contractAddress": "0xaae3116210b866f00ccf8dcbd540a6cc5d070d72",
      "function": "deposit(address,uint256)",
      "arguments": [
        "0xA730eFe70d3f67d08dD4a17a867c95bFe1F33CfA",
        "1000000000"
      ],
      "transaction": {
        "from": "0x82225d7fb76b961f03b063fdb5b25bee891e50b3",
        "to": "0xaae3116210b866f00ccf8dcbd540a6cc5d070d72",
        "gas": "0x1a19a",
        "value": "0x0",
        "input": "0x47e7ef24000000000000000000000000a730efe70d3f67d08dd4a17a867c95bfe1f33cfa000000000000000000000000000000000000000000000000000000003b9aca00",
        "nonce": "0x1",
        "chainId": "0x66eee"
      },
      "additionalContracts": [],
      "isFixedGasLimit": false
    },
    {
      "hash": null,
      "transactionType": "CALL",
      "contractName": null,
      "contractAddress": "0xc7f974b3710560d070dec95288339efab683c417",
      "function": "approve(address,uint256)",
      "arguments": [
        "0xAaE3116210b866f00ccf8dCbD540A6Cc5d070d72",
        "1000000000"
      ],
      "transaction": {
        "from": "0x82225d7fb76b961f03b063fdb5b25bee891e50b3",
        "to": "0xc7f974b3710560d070dec95288339efab683c417",
        "gas": "0x1024d",
        "value": "0x0",
        "input": "0x095ea7b3000000000000000000000000aae3116210b866f00ccf8dcbd540a6cc5d070d72000000000000000000000000000000000000000000000000000000003b9aca00",
        "nonce": "0x2",
        "chainId": "0x66eee"
      },
      "additionalContracts": [],
      "isFixedGasLimit": false
    },
    {
      "hash": null,
      "transactionType": "CALL",
      "contractName": null,
      "contractAddress": "0xaae3116210b866f00ccf8dcbd540a6cc5d070d72",
      "function": "deposit(address,uint256)",
      "arguments": [
        "0xC7f974b3710560D070dEc95288339EfAB683C417",
        "1000000000"
      ],
      "transaction": {
        "from": "0x82225d7fb76b961f03b063fdb5b25bee891e50b3",
        "to": "0xaae3116210b866f00ccf8dcbd540a6cc5d070d72",
        "gas": "0x1a19a",
        "value": "0x0",
        "input": "0x47e7ef24000000000000000000000000c7f974b3710560d070dec95288339efab683c417000000000000000000000000000000000000000000000000000000003b9aca00",
        "nonce": "0x3",
        "chainId": "0x66eee"
      },
      "additionalContracts": [],
      "isFixedGasLimit": false
    }
  ],
  "receipts": [
    {
      "status": "0x1",
      "cumulativeGasUsed": "0x5961",
      "logs": [],
      "logsBloom": "0x00000000000000000000000000000000000000000000000000000000000000000000000000000000000000000000000000000000000000000000000000000000000000000000000000000000000000000000000000000000000000000000000000000000000000000000000000000000000000000000000000000000000000000000000000000000000000000000000000000000000000000000000000000000000000000000000000000000000000000000000000000000000000000000000000000000000000000000000000000000000000000000000000000000000000000000000000000000000000000000000000000000000000000000000000000000",
      "type": "0x2",
      "transactionHash": "0xd71e9e78ff1b9d0bf8c1100743e5e0c1729bc9c3cbd848cd67d7fb09e29f529c",
      "transactionIndex": "0x1",
      "blockHash": "0x7a3930694f895f95cbf8b861eed43ecc03a4565306f9b541b9c66984564ff3a3",
      "blockNumber": "0x1092400f",
      "gasUsed": "0x5961",
      "effectiveGasPrice": "0x137fb30",
      "from": "0x0c015c85340793854e7528943746447713e2c326",
      "to": "0x5f7215df3fbd70ddbb68cec0dc0a23e4ab77b562",
      "contractAddress": null,
      "gasUsedForL1": "0x759",
      "l1BlockNumber": "0xa9043b",
      "timeboosted": false
    },
    {
      "status": "0x1",
      "cumulativeGasUsed": "0x6148f1",
      "logs": [
        {
          "address": "0xa730efe70d3f67d08dd4a17a867c95bfe1f33cfa",
          "topics": [
            "0xddf252ad1be2c89b69c2b068fc378daa952ba7f163c4a11628f55a4df523b3ef",
            "0x0000000000000000000000000000000000000000000000000000000000000000",
            "0x0000000000000000000000005f7215df3fbd70ddbb68cec0dc0a23e4ab77b562"
          ],
          "data": "0x000000000000000000000000000000000000000000000000000000003b9aca00",
          "blockHash": "0x80d283c9172e2dfc4134e9939f7e6e08fe62a2bdb3c7b2bccbd55e4380654678",
          "blockNumber": "0x10924024",
          "blockTimestamp": "0x6a31fbb7",
          "transactionHash": "0x94b4e01ee55d4d58e7d9ddaf639daa5ddaba455cada685c8eb9b125d11023963",
          "transactionIndex": "0x6",
          "logIndex": "0xce",
          "removed": false
        }
      ],
      "logsBloom": "0x00000000000000000000000000000000000000000000000000000000000000000000000000000000000000000000000000000000000000000000000000000000000000000040000000000008000000000000000000000080000000000000000000000000020000000000000000000800000000000000000000000010200000000000000000000000100000000100000000000000000000000000000000000000000000000000000000000000000000000000000000000000000000000000000000000002000000800000000000000000000000000000000000000000000020000000000000000000000000000000000000000000000000000000000000000000",
      "type": "0x2",
      "transactionHash": "0x94b4e01ee55d4d58e7d9ddaf639daa5ddaba455cada685c8eb9b125d11023963",
      "transactionIndex": "0x6",
      "blockHash": "0x80d283c9172e2dfc4134e9939f7e6e08fe62a2bdb3c7b2bccbd55e4380654678",
      "blockNumber": "0x10924024",
      "gasUsed": "0x92db",
      "effectiveGasPrice": "0x13134d0",
      "from": "0x0c015c85340793854e7528943746447713e2c326",
      "to": "0xa730efe70d3f67d08dd4a17a867c95bfe1f33cfa",
      "contractAddress": null,
      "gasUsedForL1": "0xb5c",
      "l1BlockNumber": "0xa9043b",
      "timeboosted": false
    }
  ],
  "libraries": [],
  "pending": [],
  "returns": {},
  "timestamp": 1781660601,
  "chain": 421614,
  "commit": "c560bea"
}