{
  "transactions": [
    {
      "hash": "0x74c2aec22e0557946acfa82d49a7b130a5763f5e68c43d1161716562bbddb897",
      "transactionType": "CALL",
      "contractName": null,
      "contractAddress": "0xc7f974b3710560d070dec95288339efab683c417",
      "function": "approve(address,uint256)",
      "arguments": [
        "0xAaE3116210b866f00ccf8dCbD540A6Cc5d070d72",
        "1000000000"
      ],
      "transaction": {
        "from": "0x9b96854113fefc8405f553d6323c150237c5280d",
        "to": "0xc7f974b3710560d070dec95288339efab683c417",
        "gas": "0xfdca",
        "value": "0x0",
        "input": "0x095ea7b3000000000000000000000000aae3116210b866f00ccf8dcbd540a6cc5d070d72000000000000000000000000000000000000000000000000000000003b9aca00",
        "nonce": "0x2",
        "chainId": "0x66eee"
      },
      "additionalContracts": [],
      "isFixedGasLimit": false
    },
    {
      "hash": "0x7f59ebc40a077622cc750ecfc40bd1bb9c6660ba61a58355fdc7ad0375a7c8f4",
      "transactionType": "CALL",
      "contractName": null,
      "contractAddress": "0xaae3116210b866f00ccf8dcbd540a6cc5d070d72",
      "function": "deposit(address,uint256)",
      "arguments": [
        "0xC7f974b3710560D070dEc95288339EfAB683C417",
        "1000000000"
      ],
      "transaction": {
        "from": "0x9b96854113fefc8405f553d6323c150237c5280d",
        "to": "0xaae3116210b866f00ccf8dcbd540a6cc5d070d72",
        "gas": "0x1a19a",
        "value": "0x0",
        "input": "0x47e7ef24000000000000000000000000c7f974b3710560d070dec95288339efab683c417000000000000000000000000000000000000000000000000000000003b9aca00",
        "nonce": "0x3",
        "chainId": "0x66eee"
      },
      "additionalContracts": [],
      "isFixedGasLimit": false
    },
    {
      "hash": "0x7d27be2f26349084cbebc6228fcf47abca8b37959eb3f05fa82da37366be37e2",
      "transactionType": "CALL",
      "contractName": null,
      "contractAddress": "0xa730efe70d3f67d08dd4a17a867c95bfe1f33cfa",
      "function": "approve(address,uint256)",
      "arguments": [
        "0xAaE3116210b866f00ccf8dCbD540A6Cc5d070d72",
        "1000000000"
      ],
      "transaction": {
        "from": "0x82225d7fb76b961f03b063fdb5b25bee891e50b3",
        "to": "0xa730efe70d3f67d08dd4a17a867c95bfe1f33cfa",
        "gas": "0xfe53",
        "value": "0x0",
        "input": "0x095ea7b3000000000000000000000000aae3116210b866f00ccf8dcbd540a6cc5d070d72000000000000000000000000000000000000000000000000000000003b9aca00",
        "nonce": "0x0",
        "chainId": "0x66eee"
      },
      "additionalContracts": [],
      "isFixedGasLimit": false
    },
    {
      "hash": "0xe1b89cad4526e14c2c819eaea41350972f5eab64317be8d60e5e216e287842ae",
      "transactionType": "CALL",
      "contractName": null,
      "contractAddress": "0xaae3116210b866f00ccf8dcbd540a6cc5d070d72",
      "function": "deposit(address,uint256)",
      "arguments": [
        "0xA730eFe70d3f67d08dD4a17a867c95bFe1F33CfA",
        "1000000000"
      ],
      "transaction": {
        "from": "0x82225d7fb76b961f03b063fdb5b25bee891e50b3",
        "to": "0xaae3116210b866f00ccf8dcbd540a6cc5d070d72",
        "gas": "0x1a19a",
        "value": "0x0",
        "input": "0x47e7ef24000000000000000000000000a730efe70d3f67d08dd4a17a867c95bfe1f33cfa000000000000000000000000000000000000000000000000000000003b9aca00",
        "nonce": "0x1",
        "chainId": "0x66eee"
      },
      "additionalContracts": [],
      "isFixedGasLimit": false
    },
    {
      "hash": "0x09f7138633118b7736f19460846b2a37d00dd32aba2591f1b48bc8f6848abed8",
      "transactionType": "CALL",
      "contractName": null,
      "contractAddress": "0xc7f974b3710560d070dec95288339efab683c417",
      "function": "approve(address,uint256)",
      "arguments": [
        "0xAaE3116210b866f00ccf8dCbD540A6Cc5d070d72",
        "1000000000"
      ],
      "transaction": {
        "from": "0x82225d7fb76b961f03b063fdb5b25bee891e50b3",
        "to": "0xc7f974b3710560d070dec95288339efab683c417",
        "gas": "0xfdca",
        "value": "0x0",
        "input": "0x095ea7b3000000000000000000000000aae3116210b866f00ccf8dcbd540a6cc5d070d72000000000000000000000000000000000000000000000000000000003b9aca00",
        "nonce": "0x2",
        "chainId": "0x66eee"
      },
      "additionalContracts": [],
      "isFixedGasLimit": false
    },
    {
      "hash": "0x77662ed23d6f831d94964f8ab0d95930dbc7292019aa10dc5befcc8815f1c3e4",
      "transactionType": "CALL",
      "contractName": null,
      "contractAddress": "0xaae3116210b866f00ccf8dcbd540a6cc5d070d72",
      "function": "deposit(address,uint256)",
      "arguments": [
        "0xC7f974b3710560D070dEc95288339EfAB683C417",
        "1000000000"
      ],
      "transaction": {
        "from": "0x82225d7fb76b961f03b063fdb5b25bee891e50b3",
        "to": "0xaae3116210b866f00ccf8dcbd540a6cc5d070d72",
        "gas": "0x1a19a",
        "value": "0x0",
        "input": "0x47e7ef24000000000000000000000000c7f974b3710560d070dec95288339efab683c417000000000000000000000000000000000000000000000000000000003b9aca00",
        "nonce": "0x3",
        "chainId": "0x66eee"
      },
      "additionalContracts": [],
      "isFixedGasLimit": false
    }
  ],
  "receipts": [
    {
      "status": "0x1",
      "cumulativeGasUsed": "0xf6960",
      "logs": [
        {
          "address": "0xc7f974b3710560d070dec95288339efab683c417",
          "topics": [
            "0x8c5be1e5ebec7d5bd14f71427d1e84f3dd0314c0f7b2291e5b200ac8c7c3b925",
            "0x0000000000000000000000009b96854113fefc8405f553d6323c150237c5280d",
            "0x000000000000000000000000aae3116210b866f00ccf8dcbd540a6cc5d070d72"
          ],
          "data": "0x000000000000000000000000000000000000000000000000000000003b9aca00",
          "blockHash": "0x7ce3193a25364eec0b922ff6308521a5bd636f92b3ec85c6120665e650c4a46e",
          "blockNumber": "0x10925eba",
          "blockTimestamp": "0x6a32035b",
          "transactionHash": "0x74c2aec22e0557946acfa82d49a7b130a5763f5e68c43d1161716562bbddb897",
          "transactionIndex": "0x8",
          "logIndex": "0x11",
          "removed": false
        }
      ],
      "logsBloom": "0x00000000000000000000000000000000000000000800000000000000000000000000000000000000000000004000000000000000000000000000000000200000000000000000000000000000000000000000000000000000000000000000000000000000000000000000000000000000000000000000000000008000000200000000000000000000000000000000000000000000000000000000000000000000020000000080000000000000000000000000000000000000000004000000000000000000100000000000000000000000000000000000000000000400000000000010000080000000000000000000000000000000000000000000000000000000",
      "type": "0x2",
      "transactionHash": "0x74c2aec22e0557946acfa82d49a7b130a5763f5e68c43d1161716562bbddb897",
      "transactionIndex": "0x8",
      "blockHash": "0x7ce3193a25364eec0b922ff6308521a5bd636f92b3ec85c6120665e650c4a46e",
      "blockNumber": "0x10925eba",
      "gasUsed": "0xbfa0",
      "effectiveGasPrice": "0x1312d00",
      "from": "0x9b96854113fefc8405f553d6323c150237c5280d",
      "to": "0xc7f974b3710560d070dec95288339efab683c417",
      "contractAddress": null,
      "gasUsedForL1": "0x874",
      "l1BlockNumber": "0xa904dc",
      "timeboosted": false
    },
    {
      "status": "0x1",
      "cumulativeGasUsed": "0x323c1",
      "logs": [
        {
          "address": "0xc7f974b3710560d070dec95288339efab683c417",
          "topics": [
            "0xddf252ad1be2c89b69c2b068fc378daa952ba7f163c4a11628f55a4df523b3ef",
            "0x0000000000000000000000009b96854113fefc8405f553d6323c150237c5280d",
            "0x000000000000000000000000aae3116210b866f00ccf8dcbd540a6cc5d070d72"
          ],
          "data": "0x000000000000000000000000000000000000000000000000000000003b9aca00",
          "blockHash": "0xbd1a591e9aad1b081488f08c0f8e4cae62a1cd610e091ce682f15a19c4d9373f",
          "blockNumber": "0x10925ebd",
          "blockTimestamp": "0x6a32035c",
          "transactionHash": "0x7f59ebc40a077622cc750ecfc40bd1bb9c6660ba61a58355fdc7ad0375a7c8f4",
          "transactionIndex": "0x2",
          "logIndex": "0x1",
          "removed": false
        },
        {
          "address": "0xaae3116210b866f00ccf8dcbd540a6cc5d070d72",
          "topics": [
            "0x8752a472e571a816aea92eec8dae9baf628e840f4929fbcc2d155e6233ff68a7",
            "0x0000000000000000000000009b96854113fefc8405f553d6323c150237c5280d",
            "0x000000000000000000000000c7f974b3710560d070dec95288339efab683c417"
          ],
          "data": "0x000000000000000000000000000000000000000000000000000000003b9aca00",
          "blockHash": "0xbd1a591e9aad1b081488f08c0f8e4cae62a1cd610e091ce682f15a19c4d9373f",
          "blockNumber": "0x10925ebd",
          "blockTimestamp": "0x6a32035c",
          "transactionHash": "0x7f59ebc40a077622cc750ecfc40bd1bb9c6660ba61a58355fdc7ad0375a7c8f4",
          "transactionIndex": "0x2",
          "logIndex": "0x2",
          "removed": false
        }
      ],
      "logsBloom": "0x00000000000000000000000000000000000000000800000000000000000000000000000000000000000000004000000000000000000000000000000000000000100000000000000010000008000000000000000000010000000100000000000000000000000000000000000000000000000000000000000000008010000208000000000000000000000000000000000000000000000000000000000000000002000000000080000000000000000000000000000000080000000004000000000000000002100000000000000000400000000000000000000000000500000000000000000080000000000000000000000000000000000000000000000000000000",
      "type": "0x2",
      "transactionHash": "0x7f59ebc40a077622cc750ecfc40bd1bb9c6660ba61a58355fdc7ad0375a7c8f4",
      "transactionIndex": "0x2",
      "blockHash": "0xbd1a591e9aad1b081488f08c0f8e4cae62a1cd610e091ce682f15a19c4d9373f",
      "blockNumber": "0x10925ebd",
      "gasUsed": "0x125e1",
      "effectiveGasPrice": "0x13737e0",
      "from": "0x9b96854113fefc8405f553d6323c150237c5280d",
      "to": "0xaae3116210b866f00ccf8dcbd540a6cc5d070d72",
      "contractAddress": null,
      "gasUsedForL1": "0x856",
      "l1BlockNumber": "0xa904dc",
      "timeboosted": false
    },
    {
      "status": "0x1",
      "cumulativeGasUsed": "0x18f82",
      "logs": [
        {
          "address": "0xa730efe70d3f67d08dd4a17a867c95bfe1f33cfa",
          "topics": [
            "0x8c5be1e5ebec7d5bd14f71427d1e84f3dd0314c0f7b2291e5b200ac8c7c3b925",
            "0x00000000000000000000000082225d7fb76b961f03b063fdb5b25bee891e50b3",
            "0x000000000000000000000000aae3116210b866f00ccf8dcbd540a6cc5d070d72"
          ],
          "data": "0x000000000000000000000000000000000000000000000000000000003b9aca00",
          "blockHash": "0x9c8d1dd35bf93bbab5af6475d44a90e66fb05703d6a39d92e89b3725f5d01177",
          "blockNumber": "0x10925ec0",
          "blockTimestamp": "0x6a32035c",
          "transactionHash": "0x7d27be2f26349084cbebc6228fcf47abca8b37959eb3f05fa82da37366be37e2",
          "transactionIndex": "0x2",
          "logIndex": "0x1",
          "removed": false
        }
      ],
      "logsBloom": "0x00000000000000000000000000000040000000000000000000000000000000000000000000000000000000000000000000000000000000000000000000200000000000000000000000000000000010000000000000000084000000000000000000000000000000000000000000000000000000000000000000000000200200000000000000000000000000000100000000000000000000000000000000000000020000000000000000000000000000000000000000000000000000000000000000000000100000000000000000000000000000000000000000000400000000000010000000000000000000000000000000000000000000000000000000000000",
      "type": "0x2",
      "transactionHash": "0x7d27be2f26349084cbebc6228fcf47abca8b37959eb3f05fa82da37366be37e2",
      "transactionIndex": "0x2",
      "blockHash": "0x9c8d1dd35bf93bbab5af6475d44a90e66fb05703d6a39d92e89b3725f5d01177",
      "blockNumber": "0x10925ec0",
      "gasUsed": "0xbf99",
      "effectiveGasPrice": "0x1323e70",
      "from": "0x82225d7fb76b961f03b063fdb5b25bee891e50b3",
      "to": "0xa730efe70d3f67d08dd4a17a867c95bfe1f33cfa",
      "contractAddress": null,
      "gasUsedForL1": "0x86d",
      "l1BlockNumber": "0xa904dc",
      "timeboosted": false
    },
    {
      "status": "0x1",
      "cumulativeGasUsed": "0x1ea86",
      "logs": [
        {
          "address": "0xa730efe70d3f67d08dd4a17a867c95bfe1f33cfa",
          "topics": [
            "0xddf252ad1be2c89b69c2b068fc378daa952ba7f163c4a11628f55a4df523b3ef",
            "0x00000000000000000000000082225d7fb76b961f03b063fdb5b25bee891e50b3",
            "0x000000000000000000000000aae3116210b866f00ccf8dcbd540a6cc5d070d72"
          ],
          "data": "0x000000000000000000000000000000000000000000000000000000003b9aca00",
          "blockHash": "0x804c52d9116f2d7689b2fd21dfed6967ac919443329e6da316c47c0b4f23b8a7",
          "blockNumber": "0x10925ec3",
          "blockTimestamp": "0x6a32035d",
          "transactionHash": "0xe1b89cad4526e14c2c819eaea41350972f5eab64317be8d60e5e216e287842ae",
          "transactionIndex": "0x2",
          "logIndex": "0x1",
          "removed": false
        },
        {
          "address": "0xaae3116210b866f00ccf8dcbd540a6cc5d070d72",
          "topics": [
            "0x8752a472e571a816aea92eec8dae9baf628e840f4929fbcc2d155e6233ff68a7",
            "0x00000000000000000000000082225d7fb76b961f03b063fdb5b25bee891e50b3",
            "0x000000000000000000000000a730efe70d3f67d08dd4a17a867c95bfe1f33cfa"
          ],
          "data": "0x000000000000000000000000000000000000000000000000000000003b9aca00",
          "blockHash": "0x804c52d9116f2d7689b2fd21dfed6967ac919443329e6da316c47c0b4f23b8a7",
          "blockNumber": "0x10925ec3",
          "blockTimestamp": "0x6a32035d",
          "transactionHash": "0xe1b89cad4526e14c2c819eaea41350972f5eab64317be8d60e5e216e287842ae",
          "transactionIndex": "0x2",
          "logIndex": "0x2",
          "removed": false
        }
      ],
      "logsBloom": "0x00000000000000000000000000000040000000000000000000000000000000000000000000000000000000000000000000000000000000000000000000000000000000000008000010000008000010000000000000010084000100000000000000000000000000000000002000000000000000000000000000000010200200000000000000000000000000000100000000000000000000000000000000000002000000000000000000000000000000000020000000080000000000000000000000000002100000000000000000000000000000000000000000000500000000000000000000000000000000000000000000000000000000000000000000000000",
      "type": "0x2",
      "transactionHash": "0xe1b89cad4526e14c2c819eaea41350972f5eab64317be8d60e5e216e287842ae",
      "transactionIndex": "0x2",
      "blockHash": "0x804c52d9116f2d7689b2fd21dfed6967ac919443329e6da316c47c0b4f23b8a7",
      "blockNumber": "0x10925ec3",
      "gasUsed": "0x12604",
      "effectiveGasPrice": "0x1322ed0",
      "from": "0x82225d7fb76b961f03b063fdb5b25bee891e50b3",
      "to": "0xaae3116210b866f00ccf8dcbd540a6cc5d070d72",
      "contractAddress": null,
      "gasUsedForL1": "0x879",
      "l1BlockNumber": "0xa904dd",
      "timeboosted": false
    },
    {
      "status": "0x1",
      "cumulativeGasUsed": "0x18465",
      "logs": [
        {
          "address": "0xc7f974b3710560d070dec95288339efab683c417",
          "topics": [
            "0x8c5be1e5ebec7d5bd14f71427d1e84f3dd0314c0f7b2291e5b200ac8c7c3b925",
            "0x00000000000000000000000082225d7fb76b961f03b063fdb5b25bee891e50b3",
            "0x000000000000000000000000aae3116210b866f00ccf8dcbd540a6cc5d070d72"
          ],
          "data": "0x000000000000000000000000000000000000000000000000000000003b9aca00",
          "blockHash": "0xc264b6b0b097fc734e7abd5954c3219811c66205c558738bf79fd6420ab650fa",
          "blockNumber": "0x10925ec6",
          "blockTimestamp": "0x6a32035e",
          "transactionHash": "0x09f7138633118b7736f19460846b2a37d00dd32aba2591f1b48bc8f6848abed8",
          "transactionIndex": "0x2",
          "logIndex": "0x1",
          "removed": false
        }
      ],
      "logsBloom": "0x00000000000000000000000000000040000000000800000000000000000000000000000000000000000000004000000000000000000000000000000000200000000000000000000000000000000010000000000000000004000000000000000000000000000000000000000000000000000000000000000000000000000200000000000000000000000000000000000000000000000000000000000000000000020000000000000000000000000000000000000000000000000000000000000000000000100000000000000000000000000000000000000000000400000000000010000080000000000000000000000000000000000000000000000000000000",
      "type": "0x2",
      "transactionHash": "0x09f7138633118b7736f19460846b2a37d00dd32aba2591f1b48bc8f6848abed8",
      "transactionIndex": "0x2",
      "blockHash": "0xc264b6b0b097fc734e7abd5954c3219811c66205c558738bf79fd6420ab650fa",
      "blockNumber": "0x10925ec6",
      "gasUsed": "0xbfa0",
      "effectiveGasPrice": "0x1312d00",
      "from": "0x82225d7fb76b961f03b063fdb5b25bee891e50b3",
      "to": "0xc7f974b3710560d070dec95288339efab683c417",
      "contractAddress": null,
      "gasUsedForL1": "0x874",
      "l1BlockNumber": "0xa904dd",
      "timeboosted": false
    },
    {
      "status": "0x1",
      "cumulativeGasUsed": "0x12604",
      "logs": [
        {
          "address": "0xc7f974b3710560d070dec95288339efab683c417",
          "topics": [
            "0xddf252ad1be2c89b69c2b068fc378daa952ba7f163c4a11628f55a4df523b3ef",
            "0x00000000000000000000000082225d7fb76b961f03b063fdb5b25bee891e50b3",
            "0x000000000000000000000000aae3116210b866f00ccf8dcbd540a6cc5d070d72"
          ],
          "data": "0x000000000000000000000000000000000000000000000000000000003b9aca00",
          "blockHash": "0x0fb8ce82e64391f600f264a5190a77477a48b853059ce2e194e9d9e516b0219a",
          "blockNumber": "0x10925ec9",
          "blockTimestamp": "0x6a32035f",
          "transactionHash": "0x77662ed23d6f831d94964f8ab0d95930dbc7292019aa10dc5befcc8815f1c3e4",
          "transactionIndex": "0x1",
          "logIndex": "0x0",
          "removed": false
        },
        {
          "address": "0xaae3116210b866f00ccf8dcbd540a6cc5d070d72",
          "topics": [
            "0x8752a472e571a816aea92eec8dae9baf628e840f4929fbcc2d155e6233ff68a7",
            "0x00000000000000000000000082225d7fb76b961f03b063fdb5b25bee891e50b3",
            "0x000000000000000000000000c7f974b3710560d070dec95288339efab683c417"
          ],
          "data": "0x000000000000000000000000000000000000000000000000000000003b9aca00",
          "blockHash": "0x0fb8ce82e64391f600f264a5190a77477a48b853059ce2e194e9d9e516b0219a",
          "blockNumber": "0x10925ec9",
          "blockTimestamp": "0x6a32035f",
          "transactionHash": "0x77662ed23d6f831d94964f8ab0d95930dbc7292019aa10dc5befcc8815f1c3e4",
          "transactionIndex": "0x1",
          "logIndex": "0x1",
          "removed": false
        }
      ],
      "logsBloom": "0x00000000000000000000000000000040000000000800000000000000000000000000000000000000000000004000000000000000000000000000000000000000100000000000000010000008000010000000000000010004000100000000000000000000000000000000000000000000000000000000000000000010000208000000000000000000000000000000000000000000000000000000000000000002000000000000000000000000000000000000000000080000000000000000000000000002100000000000000000400000000000000000000000000500000000000000000080000000000000000000000000000000000000000000000000000000",
      "type": "0x2",
      "transactionHash": "0x77662ed23d6f831d94964f8ab0d95930dbc7292019aa10dc5befcc8815f1c3e4",
      "transactionIndex": "0x1",
      "blockHash": "0x0fb8ce82e64391f600f264a5190a77477a48b853059ce2e194e9d9e516b0219a",
      "blockNumber": "0x10925ec9",
      "gasUsed": "0x12604",
      "effectiveGasPrice": "0x1322ed0",
      "from": "0x82225d7fb76b961f03b063fdb5b25bee891e50b3",
      "to": "0xaae3116210b866f00ccf8dcbd540a6cc5d070d72",
      "contractAddress": null,
      "gasUsedForL1": "0x879",
      "l1BlockNumber": "0xa904dd",
      "timeboosted": false
    }
  ],
  "libraries": [],
  "pending": [],
  "returns": {},
  "timestamp": 1781662559,
  "chain": 421614,
  "commit": "c560bea"
}