{
  "transactions": [
    {
      "hash": "0x286388c9e95decff475f878b5a80c5401d7c360eccee6843ac3f939027714e73",
      "transactionType": "CALL",
      "contractName": null,
      "contractAddress": "0xaae3116210b866f00ccf8dcbd540a6cc5d070d72",
      "function": "deposit(address,uint256)",
      "arguments": [
        "0xA730eFe70d3f67d08dD4a17a867c95bFe1F33CfA",
        "1000000000"
      ],
      "transaction": {
        "from": "0x5f7215df3fbd70ddbb68cec0dc0a23e4ab77b562",
        "to": "0xaae3116210b866f00ccf8dcbd540a6cc5d070d72",
        "gas": "0x1b99b",
        "value": "0x0",
        "input": "0x47e7ef24000000000000000000000000a730efe70d3f67d08dd4a17a867c95bfe1f33cfa000000000000000000000000000000000000000000000000000000003b9aca00",
        "nonce": "0x1",
        "chainId": "0x66eee"
      },
      "additionalContracts": [],
      "isFixedGasLimit": false
    },
    {
      "hash": "0x1121f0525b165ea76def08495ecb65e85713c6aed9aea0df130e6de6b11b52e7",
      "transactionType": "CALL",
      "contractName": null,
      "contractAddress": "0xc7f974b3710560d070dec95288339efab683c417",
      "function": "approve(address,uint256)",
      "arguments": [
        "0xAaE3116210b866f00ccf8dCbD540A6Cc5d070d72",
        "1000000000"
      ],
      "transaction": {
        "from": "0x5f7215df3fbd70ddbb68cec0dc0a23e4ab77b562",
        "to": "0xc7f974b3710560d070dec95288339efab683c417",
        "gas": "0xfdca",
        "value": "0x0",
        "input": "0x095ea7b3000000000000000000000000aae3116210b866f00ccf8dcbd540a6cc5d070d72000000000000000000000000000000000000000000000000000000003b9aca00",
        "nonce": "0x2",
        "chainId": "0x66eee"
      },
      "additionalContracts": [],
      "isFixedGasLimit": false
    },
    {
      "hash": "0x3993d975251117a50d0b6aa58835f34e61c821efbf25c1ee046d5778464f11a5",
      "transactionType": "CALL",
      "contractName": null,
      "contractAddress": "0xaae3116210b866f00ccf8dcbd540a6cc5d070d72",
      "function": "deposit(address,uint256)",
      "arguments": [
        "0xC7f974b3710560D070dEc95288339EfAB683C417",
        "1000000000"
      ],
      "transaction": {
        "from": "0x5f7215df3fbd70ddbb68cec0dc0a23e4ab77b562",
        "to": "0xaae3116210b866f00ccf8dcbd540a6cc5d070d72",
        "gas": "0x1bd06",
        "value": "0x0",
        "input": "0x47e7ef24000000000000000000000000c7f974b3710560d070dec95288339efab683c417000000000000000000000000000000000000000000000000000000003b9aca00",
        "nonce": "0x3",
        "chainId": "0x66eee"
      },
      "additionalContracts": [],
      "isFixedGasLimit": false
    },
    {
      "hash": "0x8209d54af6edb3d50d2170400398e3fa256f84bc833f8a3c3e5c92813084a943",
      "transactionType": "CALL",
      "contractName": null,
      "contractAddress": "0xa730efe70d3f67d08dd4a17a867c95bfe1f33cfa",
      "function": "approve(address,uint256)",
      "arguments": [
        "0xAaE3116210b866f00ccf8dCbD540A6Cc5d070d72",
        "1000000000"
      ],
      "transaction": {
        "from": "0xc480ff6dc39eb77d35f96caa281ef08ebcb63c94",
        "to": "0xa730efe70d3f67d08dd4a17a867c95bfe1f33cfa",
        "gas": "0xfe53",
        "value": "0x0",
        "input": "0x095ea7b3000000000000000000000000aae3116210b866f00ccf8dcbd540a6cc5d070d72000000000000000000000000000000000000000000000000000000003b9aca00",
        "nonce": "0x0",
        "chainId": "0x66eee"
      },
      "additionalContracts": [],
      "isFixedGasLimit": false
    },
    {
      "hash": "0x9e26c19cc1f189c99b137b8cf97ea171a79d5a3e28b921098340dd260d92f210",
      "transactionType": "CALL",
      "contractName": null,
      "contractAddress": "0xaae3116210b866f00ccf8dcbd540a6cc5d070d72",
      "function": "deposit(address,uint256)",
      "arguments": [
        "0xA730eFe70d3f67d08dD4a17a867c95bFe1F33CfA",
        "1000000000"
      ],
      "transaction": {
        "from": "0xc480ff6dc39eb77d35f96caa281ef08ebcb63c94",
        "to": "0xaae3116210b866f00ccf8dcbd540a6cc5d070d72",
        "gas": "0x1a19a",
        "value": "0x0",
        "input": "0x47e7ef24000000000000000000000000a730efe70d3f67d08dd4a17a867c95bfe1f33cfa000000000000000000000000000000000000000000000000000000003b9aca00",
        "nonce": "0x1",
        "chainId": "0x66eee"
      },
      "additionalContracts": [],
      "isFixedGasLimit": false
    },
    {
      "hash": "0xf8cb7de0c07a7716f1f3b39b99ad1aa1a83a4bccadf93615b1540ea8704d5506",
      "transactionType": "CALL",
      "contractName": null,
      "contractAddress": "0xc7f974b3710560d070dec95288339efab683c417",
      "function": "approve(address,uint256)",
      "arguments": [
        "0xAaE3116210b866f00ccf8dCbD540A6Cc5d070d72",
        "1000000000"
      ],
      "transaction": {
        "from": "0xc480ff6dc39eb77d35f96caa281ef08ebcb63c94",
        "to": "0xc7f974b3710560d070dec95288339efab683c417",
        "gas": "0xfdca",
        "value": "0x0",
        "input": "0x095ea7b3000000000000000000000000aae3116210b866f00ccf8dcbd540a6cc5d070d72000000000000000000000000000000000000000000000000000000003b9aca00",
        "nonce": "0x2",
        "chainId": "0x66eee"
      },
      "additionalContracts": [],
      "isFixedGasLimit": false
    },
    {
      "hash": "0xa689781985de7831010707c12a2ff0b87691170bf2821804fcd4890afa48156a",
      "transactionType": "CALL",
      "contractName": null,
      "contractAddress": "0xaae3116210b866f00ccf8dcbd540a6cc5d070d72",
      "function": "deposit(address,uint256)",
      "arguments": [
        "0xC7f974b3710560D070dEc95288339EfAB683C417",
        "1000000000"
      ],
      "transaction": {
        "from": "0xc480ff6dc39eb77d35f96caa281ef08ebcb63c94",
        "to": "0xaae3116210b866f00ccf8dcbd540a6cc5d070d72",
        "gas": "0x1a19a",
        "value": "0x0",
        "input": "0x47e7ef24000000000000000000000000c7f974b3710560d070dec95288339efab683c417000000000000000000000000000000000000000000000000000000003b9aca00",
        "nonce": "0x3",
        "chainId": "0x66eee"
      },
      "additionalContracts": [],
      "isFixedGasLimit": false
    },
    {
      "hash": "0xd062d3cbc9eb6555f4bdb6e59fa9908082378922fb5ca7ed435624a28ff63ae5",
      "transactionType": "CALL",
      "contractName": null,
      "contractAddress": "0xa730efe70d3f67d08dd4a17a867c95bfe1f33cfa",
      "function": "approve(address,uint256)",
      "arguments": [
        "0xAaE3116210b866f00ccf8dCbD540A6Cc5d070d72",
        "1000000000"
      ],
      "transaction": {
        "from": "0x9b96854113fefc8405f553d6323c150237c5280d",
        "to": "0xa730efe70d3f67d08dd4a17a867c95bfe1f33cfa",
        "gas": "0xfe53",
        "value": "0x0",
        "input": "0x095ea7b3000000000000000000000000aae3116210b866f00ccf8dcbd540a6cc5d070d72000000000000000000000000000000000000000000000000000000003b9aca00",
        "nonce": "0x0",
        "chainId": "0x66eee"
      },
      "additionalContracts": [],
      "isFixedGasLimit": false
    },
    {
      "hash": null,
      "transactionType": "CALL",
      "contractName": null,
      "contractAddress": "0xaae3116210b866f00ccf8dcbd540a6cc5d070d72",
      "function": "deposit(address,uint256)",
      "arguments": [
        "0xA730eFe70d3f67d08dD4a17a867c95bFe1F33CfA",
        "1000000000"
      ],
      "transaction": {
        "from": "0x9b96854113fefc8405f553d6323c150237c5280d",
        "to": "0xaae3116210b866f00ccf8dcbd540a6cc5d070d72",
        "gas": "0x1a19a",
        "value": "0x0",
        "input": "0x47e7ef24000000000000000000000000a730efe70d3f67d08dd4a17a867c95bfe1f33cfa000000000000000000000000000000000000000000000000000000003b9aca00",
        "nonce": "0x1",
        "chainId": "0x66eee"
      },
      "additionalContracts": [],
      "isFixedGasLimit": false
    },
    {
      "hash": null,
      "transactionType": "CALL",
      "contractName": null,
      "contractAddress": "0xc7f974b3710560d070dec95288339efab683c417",
      "function": "approve(address,uint256)",
      "arguments": [
        "0xAaE3116210b866f00ccf8dCbD540A6Cc5d070d72",
        "1000000000"
      ],
      "transaction": {
        "from": "0x9b96854113fefc8405f553d6323c150237c5280d",
        "to": "0xc7f974b3710560d070dec95288339efab683c417",
        "gas": "0xfdca",
        "value": "0x0",
        "input": "0x095ea7b3000000000000000000000000aae3116210b866f00ccf8dcbd540a6cc5d070d72000000000000000000000000000000000000000000000000000000003b9aca00",
        "nonce": "0x2",
        "chainId": "0x66eee"
      },
      "additionalContracts": [],
      "isFixedGasLimit": false
    },
    {
      "hash": null,
      "transactionType": "CALL",
      "contractName": null,
      "contractAddress": "0xaae3116210b866f00ccf8dcbd540a6cc5d070d72",
      "function": "deposit(address,uint256)",
      "arguments": [
        "0xC7f974b3710560D070dEc95288339EfAB683C417",
        "1000000000"
      ],
      "transaction": {
        "from": "0x9b96854113fefc8405f553d6323c150237c5280d",
        "to": "0xaae3116210b866f00ccf8dcbd540a6cc5d070d72",
        "gas": "0x1a19a",
        "value": "0x0",
        "input": "0x47e7ef24000000000000000000000000c7f974b3710560d070dec95288339efab683c417000000000000000000000000000000000000000000000000000000003b9aca00",
        "nonce": "0x3",
        "chainId": "0x66eee"
      },
      "additionalContracts": [],
      "isFixedGasLimit": false
    },
    {
      "hash": null,
      "transactionType": "CALL",
      "contractName": null,
      "contractAddress": "0xa730efe70d3f67d08dd4a17a867c95bfe1f33cfa",
      "function": "approve(address,uint256)",
      "arguments": [
        "0xAaE3116210b866f00ccf8dCbD540A6Cc5d070d72",
        "1000000000"
      ],
      "transaction": {
        "from": "0x82225d7fb76b961f03b063fdb5b25bee891e50b3",
        "to": "0xa730efe70d3f67d08dd4a17a867c95bfe1f33cfa",
        "gas": "0xfe53",
        "value": "0x0",
        "input": "0x095ea7b3000000000000000000000000aae3116210b866f00ccf8dcbd540a6cc5d070d72000000000000000000000000000000000000000000000000000000003b9aca00",
        "nonce": "0x0",
        "chainId": "0x66eee"
      },
      "additionalContracts": [],
      "isFixedGasLimit": false
    },
    {
      "hash": null,
      "transactionType": "CALL",
      "contractName": null,
      "contractAddress": "0xaae3116210b866f00ccf8dcbd540a6cc5d070d72",
      "function": "deposit(address,uint256)",
      "arguments": [
        "0xA730eFe70d3f67d08dD4a17a867c95bFe1F33CfA",
        "1000000000"
      ],
      "transaction": {
        "from": "0x82225d7fb76b961f03b063fdb5b25bee891e50b3",
        "to": "0xaae3116210b866f00ccf8dcbd540a6cc5d070d72",
        "gas": "0x1a19a",
        "value": "0x0",
        "input": "0x47e7ef24000000000000000000000000a730efe70d3f67d08dd4a17a867c95bfe1f33cfa000000000000000000000000000000000000000000000000000000003b9aca00",
        "nonce": "0x1",
        "chainId": "0x66eee"
      },
      "additionalContracts": [],
      "isFixedGasLimit": false
    },
    {
      "hash": null,
      "transactionType": "CALL",
      "contractName": null,
      "contractAddress": "0xc7f974b3710560d070dec95288339efab683c417",
      "function": "approve(address,uint256)",
      "arguments": [
        "0xAaE3116210b866f00ccf8dCbD540A6Cc5d070d72",
        "1000000000"
      ],
      "transaction": {
        "from": "0x82225d7fb76b961f03b063fdb5b25bee891e50b3",
        "to": "0xc7f974b3710560d070dec95288339efab683c417",
        "gas": "0xfdca",
        "value": "0x0",
        "input": "0x095ea7b3000000000000000000000000aae3116210b866f00ccf8dcbd540a6cc5d070d72000000000000000000000000000000000000000000000000000000003b9aca00",
        "nonce": "0x2",
        "chainId": "0x66eee"
      },
      "additionalContracts": [],
      "isFixedGasLimit": false
    },
    {
      "hash": null,
      "transactionType": "CALL",
      "contractName": null,
      "contractAddress": "0xaae3116210b866f00ccf8dcbd540a6cc5d070d72",
      "function": "deposit(address,uint256)",
      "arguments": [
        "0xC7f974b3710560D070dEc95288339EfAB683C417",
        "1000000000"
      ],
      "transaction": {
        "from": "0x82225d7fb76b961f03b063fdb5b25bee891e50b3",
        "to": "0xaae3116210b866f00ccf8dcbd540a6cc5d070d72",
        "gas": "0x1a19a",
        "value": "0x0",
        "input": "0x47e7ef24000000000000000000000000c7f974b3710560d070dec95288339efab683c417000000000000000000000000000000000000000000000000000000003b9aca00",
        "nonce": "0x3",
        "chainId": "0x66eee"
      },
      "additionalContracts": [],
      "isFixedGasLimit": false
    }
  ],
  "receipts": [
    {
      "status": "0x1",
      "cumulativeGasUsed": "0x3f9ef7",
      "logs": [
        {
          "address": "0xa730efe70d3f67d08dd4a17a867c95bfe1f33cfa",
          "topics": [
            "0xddf252ad1be2c89b69c2b068fc378daa952ba7f163c4a11628f55a4df523b3ef",
            "0x0000000000000000000000005f7215df3fbd70ddbb68cec0dc0a23e4ab77b562",
            "0x000000000000000000000000aae3116210b866f00ccf8dcbd540a6cc5d070d72"
          ],
          "data": "0x000000000000000000000000000000000000000000000000000000003b9aca00",
          "blockHash": "0x38278425ee3d00fdf6009b70e8d48e0542f9a18df17a1543710ea44bdc902fe2",
          "blockNumber": "0x10925cc8",
          "blockTimestamp": "0x6a3202de",
          "transactionHash": "0x286388c9e95decff475f878b5a80c5401d7c360eccee6843ac3f939027714e73",
          "transactionIndex": "0x4",
          "logIndex": "0x1",
          "removed": false
        },
        {
          "address": "0xaae3116210b866f00ccf8dcbd540a6cc5d070d72",
          "topics": [
            "0x8752a472e571a816aea92eec8dae9baf628e840f4929fbcc2d155e6233ff68a7",
            "0x0000000000000000000000005f7215df3fbd70ddbb68cec0dc0a23e4ab77b562",
            "0x000000000000000000000000a730efe70d3f67d08dd4a17a867c95bfe1f33cfa"
          ],
          "data": "0x000000000000000000000000000000000000000000000000000000003b9aca00",
          "blockHash": "0x38278425ee3d00fdf6009b70e8d48e0542f9a18df17a1543710ea44bdc902fe2",
          "blockNumber": "0x10925cc8",
          "blockTimestamp": "0x6a3202de",
          "transactionHash": "0x286388c9e95decff475f878b5a80c5401d7c360eccee6843ac3f939027714e73",
          "transactionIndex": "0x4",
          "logIndex": "0x2",
          "removed": false
        }
      ],
      "logsBloom": "0x00000000000000000000000000000000000000000000000000000000000000000000000000000000000000000000000000000000000000000000000000000000000000000048000010000008000000000000000000010080000100000000000000000000000000000000002000000000000000000000000000000010200200000000000000000000100000000100000000000000000000000000000000000002000000000000000000000000000000000020000000080000000000000000000000000002100000800000000000000000000000000000000000000500000000000000000000000000000000000000000000000000000000000000000000000000",
      "type": "0x2",
      "transactionHash": "0x286388c9e95decff475f878b5a80c5401d7c360eccee6843ac3f939027714e73",
      "transactionIndex": "0x4",
      "blockHash": "0x38278425ee3d00fdf6009b70e8d48e0542f9a18df17a1543710ea44bdc902fe2",
      "blockNumber": "0x10925cc8",
      "gasUsed": "0x138c9",
      "effectiveGasPrice": "0x13182f0",
      "from": "0x5f7215df3fbd70ddbb68cec0dc0a23e4ab77b562",
      "to": "0xaae3116210b866f00ccf8dcbd540a6cc5d070d72",
      "contractAddress": null,
      "gasUsedForL1": "0x87e",
      "l1BlockNumber": "0xa904d2",
      "timeboosted": false
    },
    {
      "status": "0x1",
      "cumulativeGasUsed": "0x4b6a3",
      "logs": [
        {
          "address": "0xc7f974b3710560d070dec95288339efab683c417",
          "topics": [
            "0x8c5be1e5ebec7d5bd14f71427d1e84f3dd0314c0f7b2291e5b200ac8c7c3b925",
            "0x0000000000000000000000005f7215df3fbd70ddbb68cec0dc0a23e4ab77b562",
            "0x000000000000000000000000aae3116210b866f00ccf8dcbd540a6cc5d070d72"
          ],
          "data": "0x000000000000000000000000000000000000000000000000000000003b9aca00",
          "blockHash": "0x66824efa6ca078e3f7e11035e9ed74b468bbec0a86153d55ada860c8203d94b5",
          "blockNumber": "0x10925cd5",
          "blockTimestamp": "0x6a3202e1",
          "transactionHash": "0x1121f0525b165ea76def08495ecb65e85713c6aed9aea0df130e6de6b11b52e7",
          "transactionIndex": "0x3",
          "logIndex": "0x3",
          "removed": false
        }
      ],
      "logsBloom": "0x00000000000000000000000000000000000000000800000000000000000000000000000000000000000000004000000000000000000000000000000000200000000000000040000000000000000000000000000000000000000000000000000000000000000000000000000000000000000000000000000000000000000200000000000000000000100000000000000000000000000000000000000000000000020000000000000000000000000000000000000000000000000000000000000000000000100000800000000000000000000000000000000000000400000000000010000080000000000000000000000000000000000000000000000000000000",
      "type": "0x2",
      "transactionHash": "0x1121f0525b165ea76def08495ecb65e85713c6aed9aea0df130e6de6b11b52e7",
      "transactionIndex": "0x3",
      "blockHash": "0x66824efa6ca078e3f7e11035e9ed74b468bbec0a86153d55ada860c8203d94b5",
      "blockNumber": "0x10925cd5",
      "gasUsed": "0xbf9c",
      "effectiveGasPrice": "0x131c940",
      "from": "0x5f7215df3fbd70ddbb68cec0dc0a23e4ab77b562",
      "to": "0xc7f974b3710560d070dec95288339efab683c417",
      "contractAddress": null,
      "gasUsedForL1": "0x870",
      "l1BlockNumber": "0xa904d2",
      "timeboosted": false
    },
    {
      "status": "0x1",
      "cumulativeGasUsed": "0x5ea14",
      "logs": [
        {
          "address": "0xc7f974b3710560d070dec95288339efab683c417",
          "topics": [
            "0xddf252ad1be2c89b69c2b068fc378daa952ba7f163c4a11628f55a4df523b3ef",
            "0x0000000000000000000000005f7215df3fbd70ddbb68cec0dc0a23e4ab77b562",
            "0x000000000000000000000000aae3116210b866f00ccf8dcbd540a6cc5d070d72"
          ],
          "data": "0x000000000000000000000000000000000000000000000000000000003b9aca00",
          "blockHash": "0x9878fcc92f586fce4b553ed3807d93a2cbd8af62ce6d32b250652b732493dcbe",
          "blockNumber": "0x10925ce5",
          "blockTimestamp": "0x6a3202e5",
          "transactionHash": "0x3993d975251117a50d0b6aa58835f34e61c821efbf25c1ee046d5778464f11a5",
          "transactionIndex": "0x5",
          "logIndex": "0x4",
          "removed": false
        },
        {
          "address": "0xaae3116210b866f00ccf8dcbd540a6cc5d070d72",
          "topics": [
            "0x8752a472e571a816aea92eec8dae9baf628e840f4929fbcc2d155e6233ff68a7",
            "0x0000000000000000000000005f7215df3fbd70ddbb68cec0dc0a23e4ab77b562",
            "0x000000000000000000000000c7f974b3710560d070dec95288339efab683c417"
          ],
          "data": "0x000000000000000000000000000000000000000000000000000000003b9aca00",
          "blockHash": "0x9878fcc92f586fce4b553ed3807d93a2cbd8af62ce6d32b250652b732493dcbe",
          "blockNumber": "0x10925ce5",
          "blockTimestamp": "0x6a3202e5",
          "transactionHash": "0x3993d975251117a50d0b6aa58835f34e61c821efbf25c1ee046d5778464f11a5",
          "transactionIndex": "0x5",
          "logIndex": "0x5",
          "removed": false
        }
      ],
      "logsBloom": "0x00000000000000000000000000000000000000000800000000000000000000000000000000000000000000004000000000000000000000000000000000000000100000000040000010000008000000000000000000010000000100000000000000000000000000000000000000000000000000000000000000000010000208000000000000000000100000000000000000000000000000000000000000000002000000000000000000000000000000000000000000080000000000000000000000000002100000800000000000400000000000000000000000000500000000000000000080000000000000000000000000000000000000000000000000000000",
      "type": "0x2",
      "transactionHash": "0x3993d975251117a50d0b6aa58835f34e61c821efbf25c1ee046d5778464f11a5",
      "transactionIndex": "0x5",
      "blockHash": "0x9878fcc92f586fce4b553ed3807d93a2cbd8af62ce6d32b250652b732493dcbe",
      "blockNumber": "0x10925ce5",
      "gasUsed": "0x138c5",
      "effectiveGasPrice": "0x13207c0",
      "from": "0x5f7215df3fbd70ddbb68cec0dc0a23e4ab77b562",
      "to": "0xaae3116210b866f00ccf8dcbd540a6cc5d070d72",
      "contractAddress": null,
      "gasUsedForL1": "0x87a",
      "l1BlockNumber": "0xa904d3",
      "timeboosted": false
    },
    {
      "status": "0x1",
      "cumulativeGasUsed": "0x2f6e9",
      "logs": [
        {
          "address": "0xa730efe70d3f67d08dd4a17a867c95bfe1f33cfa",
          "topics": [
            "0x8c5be1e5ebec7d5bd14f71427d1e84f3dd0314c0f7b2291e5b200ac8c7c3b925",
            "0x000000000000000000000000c480ff6dc39eb77d35f96caa281ef08ebcb63c94",
            "0x000000000000000000000000aae3116210b866f00ccf8dcbd540a6cc5d070d72"
          ],
          "data": "0x000000000000000000000000000000000000000000000000000000003b9aca00",
          "blockHash": "0x37592976ca2eec2e049ce1eb3b77b54280fcb179828ec04e3d734d976e0d93ec",
          "blockNumber": "0x10925cec",
          "blockTimestamp": "0x6a3202e7",
          "transactionHash": "0x8209d54af6edb3d50d2170400398e3fa256f84bc833f8a3c3e5c92813084a943",
          "transactionIndex": "0x4",
          "logIndex": "0x2",
          "removed": false
        }
      ],
      "logsBloom": "0x00000000100000000000000000000000000000000000000000000000000000000000000000000000000000000000800000000000000000000000000000200000000000000000000000000000000000000000000000000080000000000000000000000000000000000000000000000000000000000000000000000000200200000000000000000000000000000100000000000000000000000000000000000000020000000000000000000000000000000000000000000000000000000000000000000000100000000000000000000000000000000000000000000400000000000010000008000000000000000000000000000000000000000000000000000000",
      "type": "0x2",
      "transactionHash": "0x8209d54af6edb3d50d2170400398e3fa256f84bc833f8a3c3e5c92813084a943",
      "transactionIndex": "0x4",
      "blockHash": "0x37592976ca2eec2e049ce1eb3b77b54280fcb179828ec04e3d734d976e0d93ec",
      "blockNumber": "0x10925cec",
      "gasUsed": "0xbf9d",
      "effectiveGasPrice": "0x1319290",
      "from": "0xc480ff6dc39eb77d35f96caa281ef08ebcb63c94",
      "to": "0xa730efe70d3f67d08dd4a17a867c95bfe1f33cfa",
      "contractAddress": null,
      "gasUsedForL1": "0x871",
      "l1BlockNumber": "0xa904d3",
      "timeboosted": false
    },
    {
      "status": "0x1",
      "cumulativeGasUsed": "0x2baf1",
      "logs": [
        {
          "address": "0xa730efe70d3f67d08dd4a17a867c95bfe1f33cfa",
          "topics": [
            "0xddf252ad1be2c89b69c2b068fc378daa952ba7f163c4a11628f55a4df523b3ef",
            "0x000000000000000000000000c480ff6dc39eb77d35f96caa281ef08ebcb63c94",
            "0x000000000000000000000000aae3116210b866f00ccf8dcbd540a6cc5d070d72"
          ],
          "data": "0x000000000000000000000000000000000000000000000000000000003b9aca00",
          "blockHash": "0x68ab723df85557f6e1d358c17b81e67673dd854917b8834988e3024804d6ee64",
          "blockNumber": "0x10925cf4",
          "blockTimestamp": "0x6a3202e9",
          "transactionHash": "0x9e26c19cc1f189c99b137b8cf97ea171a79d5a3e28b921098340dd260d92f210",
          "transactionIndex": "0x3",
          "logIndex": "0x2",
          "removed": false
        },
        {
          "address": "0xaae3116210b866f00ccf8dcbd540a6cc5d070d72",
          "topics": [
            "0x8752a472e571a816aea92eec8dae9baf628e840f4929fbcc2d155e6233ff68a7",
            "0x000000000000000000000000c480ff6dc39eb77d35f96caa281ef08ebcb63c94",
            "0x000000000000000000000000a730efe70d3f67d08dd4a17a867c95bfe1f33cfa"
          ],
          "data": "0x000000000000000000000000000000000000000000000000000000003b9aca00",
          "blockHash": "0x68ab723df85557f6e1d358c17b81e67673dd854917b8834988e3024804d6ee64",
          "blockNumber": "0x10925cf4",
          "blockTimestamp": "0x6a3202e9",
          "transactionHash": "0x9e26c19cc1f189c99b137b8cf97ea171a79d5a3e28b921098340dd260d92f210",
          "transactionIndex": "0x3",
          "logIndex": "0x3",
          "removed": false
        }
      ],
      "logsBloom": "0x00000000100000000000000000000000000000000000000000000000000000000000000000000000000000000000800000000000000000000000000000000000000000000008000010000008000000000000000000010080000100000000000000000000000000000000002000000000000000000000000000000010200200000000000000000000000000000100000000000000000000000000000000000002000000000000000000000000000000000020000000080000000000000000000000000002100000000000000000000000000000000000000000000500000000000000000008000000000000000000000000000000000000000000000000000000",
      "type": "0x2",
      "transactionHash": "0x9e26c19cc1f189c99b137b8cf97ea171a79d5a3e28b921098340dd260d92f210",
      "transactionIndex": "0x3",
      "blockHash": "0x68ab723df85557f6e1d358c17b81e67673dd854917b8834988e3024804d6ee64",
      "blockNumber": "0x10925cf4",
      "gasUsed": "0x1260b",
      "effectiveGasPrice": "0x1313ca0",
      "from": "0xc480ff6dc39eb77d35f96caa281ef08ebcb63c94",
      "to": "0xaae3116210b866f00ccf8dcbd540a6cc5d070d72",
      "contractAddress": null,
      "gasUsedForL1": "0x880",
      "l1BlockNumber": "0xa904d3",
      "timeboosted": false
    },
    {
      "status": "0x1",
      "cumulativeGasUsed": "0x25502",
      "logs": [
        {
          "address": "0xc7f974b3710560d070dec95288339efab683c417",
          "topics": [
            "0x8c5be1e5ebec7d5bd14f71427d1e84f3dd0314c0f7b2291e5b200ac8c7c3b925",
            "0x000000000000000000000000c480ff6dc39eb77d35f96caa281ef08ebcb63c94",
            "0x000000000000000000000000aae3116210b866f00ccf8dcbd540a6cc5d070d72"
          ],
          "data": "0x000000000000000000000000000000000000000000000000000000003b9aca00",
          "blockHash": "0xdc2ce31178af00b01032d48ed06860ab3bfd76850cf9c28164dea33ce30749a9",
          "blockNumber": "0x10925cfb",
          "blockTimestamp": "0x6a3202eb",
          "transactionHash": "0xf8cb7de0c07a7716f1f3b39b99ad1aa1a83a4bccadf93615b1540ea8704d5506",
          "transactionIndex": "0x3",
          "logIndex": "0x2",
          "removed": false
        }
      ],
      "logsBloom": "0x00000000100000000000000000000000000000000800000000000000000000000000000000000000000000004000800000000000000000000000000000200000000000000000000000000000000000000000000000000000000000000000000000000000000000000000000000000000000000000000000000000000000200000000000000000000000000000000000000000000000000000000000000000000020000000000000000000000000000000000000000000000000000000000000000000000100000000000000000000000000000000000000000000400000000000010000088000000000000000000000000000000000000000000000000000000",
      "type": "0x2",
      "transactionHash": "0xf8cb7de0c07a7716f1f3b39b99ad1aa1a83a4bccadf93615b1540ea8704d5506",
      "transactionIndex": "0x3",
      "blockHash": "0xdc2ce31178af00b01032d48ed06860ab3bfd76850cf9c28164dea33ce30749a9",
      "blockNumber": "0x10925cfb",
      "gasUsed": "0xbfa0",
      "effectiveGasPrice": "0x1312d00",
      "from": "0xc480ff6dc39eb77d35f96caa281ef08ebcb63c94",
      "to": "0xc7f974b3710560d070dec95288339efab683c417",
      "contractAddress": null,
      "gasUsedForL1": "0x874",
      "l1BlockNumber": "0xa904d3",
      "timeboosted": false
    },
    {
      "status": "0x1",
      "cumulativeGasUsed": "0x12603",
      "logs": [
        {
          "address": "0xc7f974b3710560d070dec95288339efab683c417",
          "topics": [
            "0xddf252ad1be2c89b69c2b068fc378daa952ba7f163c4a11628f55a4df523b3ef",
            "0x000000000000000000000000c480ff6dc39eb77d35f96caa281ef08ebcb63c94",
            "0x000000000000000000000000aae3116210b866f00ccf8dcbd540a6cc5d070d72"
          ],
          "data": "0x000000000000000000000000000000000000000000000000000000003b9aca00",
          "blockHash": "0xb67db054a6df4f5895a173494304445603784207b77c731ef94fb19497373304",
          "blockNumber": "0x10925d0d",
          "blockTimestamp": "0x6a3202ef",
          "transactionHash": "0xa689781985de7831010707c12a2ff0b87691170bf2821804fcd4890afa48156a",
          "transactionIndex": "0x1",
          "logIndex": "0x0",
          "removed": false
        },
        {
          "address": "0xaae3116210b866f00ccf8dcbd540a6cc5d070d72",
          "topics": [
            "0x8752a472e571a816aea92eec8dae9baf628e840f4929fbcc2d155e6233ff68a7",
            "0x000000000000000000000000c480ff6dc39eb77d35f96caa281ef08ebcb63c94",
            "0x000000000000000000000000c7f974b3710560d070dec95288339efab683c417"
          ],
          "data": "0x000000000000000000000000000000000000000000000000000000003b9aca00",
          "blockHash": "0xb67db054a6df4f5895a173494304445603784207b77c731ef94fb19497373304",
          "blockNumber": "0x10925d0d",
          "blockTimestamp": "0x6a3202ef",
          "transactionHash": "0xa689781985de7831010707c12a2ff0b87691170bf2821804fcd4890afa48156a",
          "transactionIndex": "0x1",
          "logIndex": "0x1",
          "removed": false
        }
      ],
      "logsBloom": "0x00000000100000000000000000000000000000000800000000000000000000000000000000000000000000004000800000000000000000000000000000000000100000000000000010000008000000000000000000010000000100000000000000000000000000000000000000000000000000000000000000000010000208000000000000000000000000000000000000000000000000000000000000000002000000000000000000000000000000000000000000080000000000000000000000000002100000000000000000400000000000000000000000000500000000000000000088000000000000000000000000000000000000000000000000000000",
      "type": "0x2",
      "transactionHash": "0xa689781985de7831010707c12a2ff0b87691170bf2821804fcd4890afa48156a",
      "transactionIndex": "0x1",
      "blockHash": "0xb67db054a6df4f5895a173494304445603784207b77c731ef94fb19497373304",
      "blockNumber": "0x10925d0d",
      "gasUsed": "0x12603",
      "effectiveGasPrice": "0x1323e70",
      "from": "0xc480ff6dc39eb77d35f96caa281ef08ebcb63c94",
      "to": "0xaae3116210b866f00ccf8dcbd540a6cc5d070d72",
      "contractAddress": null,
      "gasUsedForL1": "0x878",
      "l1BlockNumber": "0xa904d3",
      "timeboosted": false
    },
    {
      "status": "0x1",
      "cumulativeGasUsed": "0x18465",
      "logs": [
        {
          "address": "0xa730efe70d3f67d08dd4a17a867c95bfe1f33cfa",
          "topics": [
            "0x8c5be1e5ebec7d5bd14f71427d1e84f3dd0314c0f7b2291e5b200ac8c7c3b925",
            "0x0000000000000000000000009b96854113fefc8405f553d6323c150237c5280d",
            "0x000000000000000000000000aae3116210b866f00ccf8dcbd540a6cc5d070d72"
          ],
          "data": "0x000000000000000000000000000000000000000000000000000000003b9aca00",
          "blockHash": "0x236b19ca1a1eee412cc0dd85bae0bf8e16486dc7b574247515b2b4972a0b29d0",
          "blockNumber": "0x10925d14",
          "blockTimestamp": "0x6a3202f1",
          "transactionHash": "0xd062d3cbc9eb6555f4bdb6e59fa9908082378922fb5ca7ed435624a28ff63ae5",
          "transactionIndex": "0x2",
          "logIndex": "0x1",
          "removed": false
        }
      ],
      "logsBloom": "0x00000000000000000000000000000000000000000000000000000000000000000000000000000000000000000000000000000000000000000000000000200000000000000000000000000000000000000000000000000080000000000000000000000000000000000000000000000000000000000000000000008000200200000000000000000000000000000100000000000000000000000000000000000000020000000080000000000000000000000000000000000000000004000000000000000000100000000000000000000000000000000000000000000400000000000010000000000000000000000000000000000000000000000000000000000000",
      "type": "0x2",
      "transactionHash": "0xd062d3cbc9eb6555f4bdb6e59fa9908082378922fb5ca7ed435624a28ff63ae5",
      "transactionIndex": "0x2",
      "blockHash": "0x236b19ca1a1eee412cc0dd85bae0bf8e16486dc7b574247515b2b4972a0b29d0",
      "blockNumber": "0x10925d14",
      "gasUsed": "0xbfa0",
      "effectiveGasPrice": "0x1313ca0",
      "from": "0x9b96854113fefc8405f553d6323c150237c5280d",
      "to": "0xa730efe70d3f67d08dd4a17a867c95bfe1f33cfa",
      "contractAddress": null,
      "gasUsedForL1": "0x874",
      "l1BlockNumber": "0xa904d3",
      "timeboosted": false
    }
  ],
  "libraries": [],
  "pending": [],
  "returns": {},
  "timestamp": 1781662541,
  "chain": 421614,
  "commit": "c560bea"
}